:100000000C94BC000C94E4000C94E4000C94E40008
:100010000C94E4000C94E4000C94C8060C94E400E6
:100020000C94E4000C94E4000C94E4000C94E400C0
:100030000C94E4000C94E4000C94E4000C94E400B0
:100040000C94900F0C94E4000C94D80C0C94B20C0B
:100050000C94E4000C94E4000C94E4000C94E40090
:100060000C940A0D0C94E4000C94E4000C94E4004D
:100070000C94E4000C94E4000C94E4000C94E40070
:100080000C94E4000C94E4000C94E4000C94E40060
:100090000C94E4000C94E4000C94E4000C94E40050
:1000A0000C94E4000C94E4000C94E4000C94E40040
:1000B0000C94E4003B0F3E0F130F170F410F410F3D
:1000C0001D0F210F270F2B0F410F310F350FCDCCF7
:1000D000CC3D0AD7233C17B7D13877CC2B32959536
:1000E000E6241FB14F0A0000803FCDCCCC3D6F12FB
:1000F000833A95BFD6337D1D9026B3CE010C000008
:1001000020410000C84200401C4620BCBE4CCA1B17
:100110000E5AAEC59D7400000000250028002B007B
:100120002E00040404040404040402020202020275
:10013000030303030303020203050505050102048B
:100140000810204080010204081020010204081059
:1001500020408040010204080A0D0E09000302003D
:10016000000405080000000000000000000000007E
:10017000000000007019621911241FBECFEFD8E0F3
:10018000DEBFCDBF12E0A0E0B1E0EAEDF0E402C0D6
:1001900005900D92A63AB107D9F726E0A6EAB2E09B
:1001A00001C01D92A03AB207E1F710E0CBEBD0E01E
:1001B00004C02197FE010E94061DCA3BD107C9F762
:1001C0000E94DA0F0C9460200C940000982F80EDB0
:1001D000890F8A3020F081EA890F8C3110F481E098
:1001E00008958FEB890F8A31D0F39B32C1F381E000
:1001F0009D3221F09E3219F080E00895089508950F
:10020000FC01808581110AC0A581B681CD010196CE
:10021000968385838C91878381E080878781089589
:100220009F92AF92BF92CF92DF92EF92FF920F9385
:100230001F93CF93DF9300D000D01F92CDB7DEB7CE
:100240008C010E940001D82ED80118961C92E12C36
:10025000F12C70EFC72EC8010E940001F801108632
:10026000D81609F456C08823C9F08C3509F046C069
:10027000C8010E940001882389F0853719F0E7E85A
:10028000F2E033C0D80118961C9264E0962EA12C9F
:10029000B12CC8010E940001811106C0F801E55B84
:1002A000FF4F82E090E00EC0813414F490ED02C064
:1002B0008F7D99EC980F903148F0F801E55BFF4F86
:1002C00083E090E09183808380E08FC054E0AA0CAB
:1002D000BB1C5A95E1F7A92AF80110869A9491104F
:1002E000D8CF22C0891729F0329690819111FACF88
:1002F000E4CF8181882309F3F8011086D801ED91BC
:10030000FC9111979F012F5F3F4F2D933C9380836A
:10031000A2CFD8010190F081E02DCF0101968D93FD
:100320009C93108281E061C0C501985D8115944065
:1003300020F47501F3E0FF228ECFC5019C5D81158D
:10034000944068F4C50193705701BA2CAA24BB0CE1
:10035000BB0C8A299B29A0E0B0E0119603C0C5011F
:10036000A0E0B0E0198280389105A105B10520F424
:100370008A83FE01339629C0282F2F7320682A8391
:1003800036E0B695A795979587953A95D1F780323F
:10039000910528F4806C8B83FE01349616C0282FBB
:1003A0002F7320682B8326E0969587952A95E1F791
:1003B0008031910528F4806E8C83FE01359605C04E
:1003C00080688C83CD82FE0136968291882309F461
:1003D00042CFD8014D915C9111979A012F5F3F4F09
:1003E0002D933C93DA018C93F0CF0F900F900F90E8
:1003F0000F900F90DF91CF911F910F91FF90EF9091
:10040000DF90CF90BF90AF909F9008951F93CF93B0
:10041000DF93EC01162F0E940001811303C01886A0
:1004200081E001C080E0DF91CF911F910895CF93CB
:10043000DF93EC01CE010E9400018B302CF4893057
:10044000B4F4882331F015C08D3089F0803289F4FE
:100450000EC08C81811103C081E090E002C082E077
:1004600090E0C55BDF4F9983888380E004C01886E5
:10047000E1CF81E08C83DF91CF910895CF93DF931B
:10048000DC01EB01EC81FD818A819B810896E817F4
:10049000F90718F481E0888722C03897FD83EC8340
:1004A0003097E9F01296CD91DC911397209751F097
:1004B000CF018C1B9D0B23E0959587952A95E1F73D
:1004C0008D8303C01196FC93EE931396FC93EE93E9
:1004D00012971582148217821682CF0102C080E023
:1004E00090E0DF91CF9108958F929F92AF92BF924B
:1004F000CF92DF92EF92FF920F931F93CF93DF93F0
:10050000CDB7DEB766970FB6F894DEBF0FBECDBF8E
:100510006C018E01095E1F4F78018AE0882E912CB4
:10052000A12CB12CCB01BA01A50194010E94E41CBD
:10053000942F852F605DF80162938F01A901692FC7
:10054000782F411551056105710561F7A7014E1B13
:100550005F0BBF01C6010E94750E66960FB6F89438
:10056000DEBF0FBECDBFDF91CF911F910F91FF90E6
:10057000EF90DF90CF90BF90AF909F908F900895B5
:10058000EF92FF920F931F93CF93DF93EC017B01C8
:1005900062E20E94600E8701F80161918F0166237B
:1005A00079F0E7E8F2E0F280FF20A1F03296818155
:1005B0006813F9CF6CE5CE010E94600E6F2D0AC062
:1005C00062E2CE01DF91CF911F910F91FF90EF90EA
:1005D0000C94600ECE010E94600EDECF4F925F92AF
:1005E0006F927F929F92AF92BF92CF92DF92EF92E3
:1005F000FF920F931F93CF93DF93EC018B018881C0
:100600008B3231F08D3229F42196AA24A39402C0B2
:100610002196A12C888190ED980F9A3018F08E3297
:1006200009F02AC1C12CD12C7601FE018191A0EDE7
:10063000BA2EB80E29E02B1528F18AE9C81689E9E7
:10064000D806E80689E1F806F8F4AAE0B0E0A701C8
:1006500096010E940C1D6B017C018B2D90E0A0E0A7
:10066000B0E0AC01BD0140955095609570954C157A
:100670005D056E057F0540F0C80ED91EEA1EFB1E03
:10068000EF01D3CF882339F0B12CEAE04E2E512C64
:10069000612C712C0FC0C8010496AA2011F06AE0E9
:1006A00001C068E00E945A0EF801C082D182E28245
:1006B000F382E0C0C114D104F0E8EF06F10450F079
:1006C000C701B601A30192010E94E41C69017A01ED
:1006D000B394F0CFFE01899190ED980F9A3010F409
:1006E000B394F8CF8E3201F5EF012196FE012196E9
:1006F000808170ED972E980E29E02915A8F08CECDA
:10070000C816D8068CE0E806F10480F7AAE0B0E04D
:10071000A70196010E940C1D6B017C01C90CD11C24
:10072000E11CF11CBA94E2CF80818F7D853409F001
:1007300052C081818D3219F4329651E006C08B325D
:1007400011F0319601C0329650E0DF01C0E0D0E0F8
:100750006AE08B2D0B2C000C990BFD014D9120EDC7
:10076000240F2A3090F56C9F90016D9F300D11245D
:10077000C42F440FDD0BE097C20FD31F9C012C0F39
:100780003D1F273231054CF3C8010496552361F013
:10079000AA2031F0C12CD12CE12C60E8F62E13C038
:1007A000C12CD12C76010FC0A11007C0C12CD12CB7
:1007B00050E8E52E5FE7F52E06C0C12CD12C40E8AD
:1007C000E42EFF24FA946CE04EC0552331F0D1950D
:1007D000C195D10902C0C0E0D0E0808181114CC038
:1007E000CB0DD11DB7FCDA95C701B6010E94E21D01
:1007F0001C161D06ACF4F12CC0FF0CC024E0F29EC8
:10080000F0011124E250FF4F25913591459154910B
:100810000E94991ED595C795F394209769F718C043
:10082000D195C195D109F12C209791F0C0FF0CC052
:1008300024E0F29EF0011124E253FF4F25913591FF
:10084000459154910E94991ED595C795F394ECCF8C
:100850006B017C01AA2021F0F7FAF094F7F8F094EC
:100860006CE0C80104960E945A0EF801C082D18241
:10087000E282F38281E001C080E0DF91CF911F919D
:100880000F91FF90EF90DF90CF90BF90AF909F902F
:100890007F906F905F904F900895FB010190002032
:1008A000E9F73197AF01461B570B0C94750ECF92A9
:1008B000DF92EF92FF92CF93DF9300D000D01F9290
:1008C000CDB7DEB7DC0114969C9114979F779630D4
:1008D000C9F0FD01973080F4943008F44BC080815A
:1008E00091811D82BE016F5F7F4F0E94EE02CE019B
:1008F00001960E94570440C09A3081F09C30E1F08C
:100900009830C1F58D919D910D90BC91A02D8115D0
:1009100020E89207A105B10578F12CC08081918172
:10092000A281B381813020E89207A105B10510F5BD
:1009300091958195910920C0C080D180E280F3809B
:1009400020E030E040E057ECC701B6010E94941E61
:1009500087FD10C020E03EEF4FEF56E4C701B6011F
:100960000E94A71D181634F0C701B6010E94AC1DE5
:10097000CB0102C080E090E00F900F900F900F909D
:100980000F90DF91CF91FF90EF90DF90CF9008957F
:100990009F92AF92BF92CF92DF92EF92FF920F930E
:1009A0001F93CF93DF93EC018B01E22E0E9417027D
:1009B000F82E882319F1CE010E940001873209F434
:1009C0007EC024F4823209F47AC090C08B3521F0C5
:1009D0008B3709F44CC08AC060E4C80104960E94B9
:1009E0005A0EF8011182108213821282E11008C09F
:1009F000C55BDF4F86E090E099838883F12C3EC190
:100A00001886CE010E9417028823C1F36DE5CE013E
:100A10000E940602811132C1EA9469857A85C80173
:100A20000E943E02009729F4C55BDF4F84E090E00E
:100A3000E3CF2E2D40E0BC01CE010E94C8048823E4
:100A4000E9F2CE010E9417028823C1F26DE5CE01C2
:100A50000E940602811112C16CE2CE010E940602C0
:100A60008111DBCFC55BDF4F83E090E0C5CF60E253
:100A7000C80104960E945A0EF80111821082138256
:100A80001282EE2009F4B4CF1886CE010E9417021C
:100A9000882309F4B3CF6DE7CE010E9406028111CD
:100AA000EDC0EA94888199819B838A83CE010E945C
:100AB00000018732D1F1823209F086C036C08881C8
:100AC00099819B838A83CE010E941001F82E88238E
:100AD00009F494CF0A80DB81C02D64E0C80104963C
:100AE0000E945A0EF801D183C083C8C0CE010E9473
:100AF0000001B82E6E01FBE0CF0ED11CE12CAC2C16
:100B00009D2C8B2D0E94E600882309F47EC08FE384
:100B1000E81609F47AC01886E394F601B1926F01E1
:100B2000CE010E940001B82EECCFCE010E94100130
:100B3000882309F463CFCE010E941702882309F4A9
:100B40005DCF6AE3CE010E940602882309F48ACFB2
:100B5000CA80DB80B601F801808191810E94370E46
:100B6000009711F0BC010FC069857A85C8010E9409
:100B70003E02FC01892B09F457CF84818F7784834F
:100B8000D782C682BF012E2D40E0CE010E94C8044C
:100B9000882309F433CFCE010E941702882309F479
:100BA0002DCF6DE7CE010E940602811167C06CE275
:100BB000CE010E940602882309F454CFCE010E9480
:100BC000170281116FCF1ACFCE010E940001D82EDB
:100BD0000E94E600882309F445CF1886E881F98150
:100BE000CF01019699838883D082CE010E940001B3
:100BF000D82E0E94E6008111F0CFE881F981CF0163
:100C0000019699838883108296CFFE01EE0DF11D27
:100C100013868B858437B1F466E0C80104960E9480
:100C20005A0E81E090E0A0E0B0E0F801808391836B
:100C3000A283B383F4E0EF1609F1C55BDF4F82E0D6
:100C400090E0DACE863661F466E0C80104960E9430
:100C50005A0EF8011082118212821382F5E0EBCF56
:100C60008E3621F484E0E812E8CF08C0B8018A2D5E
:100C7000992D0E94EE02882309F4F4CE8F2DDF9186
:100C8000CF911F910F91FF90EF90DF90CF90BF9089
:100C9000AF909F9008951F93CF93DF93009781F0BB
:100CA000162FEC0168E004960E945A0E812F90E006
:100CB000A0E0B0E088839983AA83BB8381E001C070
:100CC00080E0DF91CF911F9108950F931F93CF93F1
:100CD000DF93009779F08B01EC0168E004960E94A5
:100CE0005A0EC801A0E0B0E088839983AA83BB8331
:100CF00081E001C080E0DF91CF911F910F910895B5
:100D0000EF92FF920F931F93CF93DF938B017A01A2
:100D100091E090938C049BE09093870410928A0456
:100D200010928B04682F85E794E00E94500C80E0BD
:100D30000E94E10E4091810450918204C8019927DC
:100D4000481759070CF0402F609183047091840478
:100D5000E0919904F0919A0421E08BE009951092BA
:100D6000850480938604E701CE018E199F098017C0
:100D7000910734F485E794E00E94030C8993F4CF43
:100D800081E0DF91CF911F910F91FF90EF90089537
:100D90001F920F920FB60F9211248F939F93809101
:100DA000040190910501892B31F481E090E090934A
:100DB0000501809304019F918F910F900FBE0F90BA
:100DC0001F901895FC012581222331F0F8E02F02B5
:100DD000800D911D1124089580E090E008952F92D8
:100DE0003F924F925F926F927F928F929F92AF92BB
:100DF000BF92CF92DF92EF92FF920F931F93CF9308
:100E0000DF93CDB7DEB766970FB6F894DEBF0FBE9F
:100E1000CDBF8C011B01DC0114968C918F7786303D
:100E200009F4A7C068F4823008F4BAC0843008F42A
:100E30008EC0F80160817181C1010E94C002AAC008
:100E40008C3009F190F4883009F48AC08A3009F0B6
:100E5000A7C0F801C080D180E280F3806DE2C101BB
:100E60000E94600EB701A60180C0803209F447C01D
:100E7000803409F095C06BE5C1010E94600ED80175
:100E80000D911C9134C0F801C080D180E280F380C4
:100E9000A7019601C701B6010E94A71D811180C05C
:100EA00020E030E0A901C701B6010E94A71D8823F8
:100EB00009F47FC0A7019601C701B6010E943B1D3E
:100EC0009B01AC01C701B6010E94A71D811171C031
:100ED00067C0B101C8010E94EF06C8010E94E20686
:100EE0008C01892B39F06CE2C1010E94600E011562
:100EF000110579F76DE5C1010E94600E56C06BE7E0
:100F0000C1010E94600ED8010D911C9101151105BF
:100F1000C9F0F80166817781C1010E94C0026AE3CD
:100F2000C1010E94600EB101C8010E94EF06C80114
:100F30000E94E2068C01892B29F06CE2C1010E941B
:100F4000600EE4CF6DE7C1010E94600E23C0F8017E
:100F50004281538160817181C1010E94750E1AC066
:100F6000F8014081518162817381C1010E94740244
:100F700011C0F80180819181A281B381892B8A2BD4
:100F80008B2B19F06BE972E002C060EA72E0C101DC
:100F90000E944D04D10112968D919C9113978DC1A1
:100FA0006BE772E0C1010E944D04F10182819381DF
:100FB00084C120E030E0A901C701B6010E94A71D4D
:100FC00087FF08C06DE2C1010E94600EF7FAF0943D
:100FD000F7F8F09420E836E948E15BE4C701B60190
:100FE0000E94941E87FD37C0812C912C70E2A72EA1
:100FF000B12C1A8A198A84010C5E1F4FF801E25045
:10100000FF4F2591359145915491C701B6010E943A
:10101000941E87FD13C0F801E253FF4F25913591CF
:1010200045915491C701B6010E94991E6B017C0144
:1010300089899A898A0D9B1D9A8B898BB594A7946F
:1010400094E0891A9108A8EE8A16AFEF9A0699F6ED
:1010500099249A9407C040E2A42EB12C55E0952E15
:101060001A8A198A20E030E0A901C701B6010E945E
:10107000941E18160CF036C02CEA35EC47E257E304
:10108000C701B6010E94A71D181664F1BFEF9B1699
:1010900049F1E92DF4E0EF0280011124F801EA5151
:1010A000FF4F6591759185919491A70196010E94DA
:1010B000941E18169CF4F801E250FF4F25913591CB
:1010C00045915491C701B6010E94991E6B017C01A4
:1010D00089899A898A199B099A8B898BB594A794D7
:1010E0009A94D4CFC701B6010E94B31D4B015C0195
:1010F0002B013C0106E080E492E4AFE0B0E08B8B92
:101100009C8BAD8BBE8B102F01509AE04916510479
:1011100061047104C8F06B897C898D899E892AE0FD
:1011200030E040E050E00E94E41C2B8B3C8B4D8B68
:101130005E8BC301B2012AE030E040E050E00E9443
:10114000E41C29013A01DFCFC501B4010E94E21D70
:101150009B01AC01C701B6010E943A1D6B017C01E5
:101160006B897C898D899E890E94E21D9B01AC015F
:10117000C701B6010E94991E2B013C010E94B31DBC
:101180006B017C010E94E21D9B01AC01C301B20115
:101190000E943A1D9B01AC010E943B1D0E94B31DA1
:1011A000C60ED71EE81EF91E8B899C89AD89BE89A3
:1011B000C816D906EA06FB06F8F09FEF891A990AC5
:1011C000A90AB90AA989BA89AB2B99F0BAE08B169A
:1011D0009104A104B10468F0E989FA893196FA8B87
:1011E000E98BC12CD12C7601812C912C5401839454
:1011F00003C0C12CD12C76019AE0492E512C612CD0
:10120000712CC701B601A30192010E94E41C672B57
:10121000682B692B31F4111624F469017A011150FD
:10122000F0CFB501A401C1010E947402112339F16C
:10123000012F4E01F1E18F0E911C54018AE0482EDE
:10124000512C612C712C015068F0C701B601A3012B
:1012500092010E94E41C605DD4016E934D0169010E
:101260007A01F1CFB501611B71098EE2FB01829316
:10127000BF01A5014E1B5F0BC1010E94750E89893C
:101280009A8997FF0BC068E972E0C1010E944D0482
:1012900069897A897195619571090BC0A989BA89A3
:1012A000AB2B09F482CE65E6C1010E94600E69890C
:1012B0007A89C1010E948A0E78CE66960FB6F8949C
:1012C000DEBF0FBECDBFDF91CF911F910F91FF9079
:1012D000EF90DF90CF90BF90AF909F908F907F90D6
:1012E0006F905F904F903F902F900895EF92FF92F4
:1012F0000F931F93CF93DF93EC018B017A018C81C5
:101300008F7749F460E2CE0104960E945A0E19824A
:1013100018821B821A828C8185FF18C00115110565
:10132000A9F0B801888199810E94370E009781F455
:10133000B701CE010E943E02FC01892B39F0848165
:101340008F77848317830683CF0102C080E090E00B
:10135000DF91CF911F910F91FF90EF900895CF9261
:10136000DF92EF92FF920F931F93CF93DF936C0165
:101370007A018B01C0E0D0E0CE15DF0581F0D80105
:101380006D918D01D601ED91FC910190F081E02DE0
:10139000C6010995892B11F02196EECF7E01C70178
:1013A000DF91CF911F910F91FF90EF90DF90CF9041
:1013B0000895FC01538D448D252F30E0842F90E05B
:1013C000821B930B541710F0CF9608950197089540
:1013D000FC01918D828D981761F0828DDF01A80F3D
:1013E000B11D5D968C91928D9F5F9F73928F90E05F
:1013F00008958FEF9FEF0895FC01918D828D9817CE
:1014000031F0828DE80FF11D858D90E008958FEF0A
:101410009FEF0895FC01918D228D892F90E0805CD3
:101420009F4F821B91098F739927089584ED93E054
:101430000E940A0A21E0892B09F420E0822F0895F6
:10144000FC01848DDF01A80FB11DA35ABF4F2C9161
:10145000848D90E001968F739927848FA689B78930
:101460002C93A089B1898C9180648C93938D848D09
:10147000981306C00288F389E02D80818F7D8083D8
:101480000895EF92FF920F931F93CF93DF93EC0198
:1014900081E0888F9B8D8C8D981305C0E889F98930
:1014A000808185FD24C0F62E0B8D10E00F5F1F4F4D
:1014B0000F731127E02E8C8DE8120CC00FB607FCBD
:1014C000FACFE889F989808185FFF5CFCE010E94A6
:1014D000200AF1CF8B8DFE01E80FF11DE35AFF4F7B
:1014E000F0820B8FEA89FB898081806207C0EE89D8
:1014F000FF896083E889F98980818064808381E045
:1015000090E0DF91CF911F910F91FF90EF900895A0
:10151000CF93DF93EC01888D8823C9F0EA89FB899A
:10152000808185FD05C0A889B9898C9186FD0FC091
:101530000FB607FCF5CF808185FFF2CFA889B98966
:101540008C9185FFEDCFCE010E94200AE7CFDF917D
:10155000CF91089580E090E0892B21F00E94160A37
:1015600081110DC080E090E0892B71F080E090E067
:10157000892B51F00E940000811104C008950E943F
:101580000000F0CF0C940000089585EC8093BC001F
:101590001092AE03089585ED8093BC008091BC004D
:1015A00084FDFCCF1092AE030895882311F085ECE2
:1015B00001C085E88093BC00089540918A03262FDE
:1015C00030E0240F311D21323105DCF42091AE03CF
:1015D0002430C9F4FC0180E090E0861758F4309183
:1015E0008A032191DC01A659BC4FA30FB11D2C9396
:1015F0000196F3CF80918A03680F60938A0380E09D
:10160000089581E0089582E008950F93413208F033
:101610004AC09091AE039111FCCF32E03093AE03FB
:101620000093B0033FEF3093AD031092D203409389
:10163000D103562FA1EBB3E0FB013E2F351B34172E
:1016400018F431913D93F9CF1092D3033091D30325
:10165000880F832B8093D3038091AF03813061F493
:101660001092AF038091D3038093BB008091BC00A4
:1016700083FDF8CF85EC01C085EE8093BC0022236A
:1016800021F08091AE038230D1F38091AD038F3F82
:1016900079F08091AD03803241F08091AD038033C9
:1016A00031F094E005C091E003C092E001C093E006
:1016B000892F0F910895413208F043C09091AE03F5
:1016C0009111FCCF91E09093AE032093B0032FEFE4
:1016D0002093AD031092D203240F2093D103909353
:1016E000D3039091D303880F892B8093D3038091E8
:1016F000AF03813061F41092AF038091D3038093E4
:10170000BB008091BC0083FDF8CF85EC01C085EE65
:101710008093BC008091AE038130E1F38091D203CD
:10172000841710F44091D203A1EBB3E0962FFB0194
:101730008E2F891B841718F48D918193F9CF842FF4
:10174000089580E008959B01AC0160E072E18AE7B2
:1017500090E00E94E41CDA01C9014097A109B10997
:10176000B695A795979587958093B8000895880FAB
:101770008093BA000895E0918D04F0918E04309723
:1017800029F010928A0410928B0409940895DC01C8
:1017900080918F0490919004892B19F19091850488
:1017A000809186049817E8F090E0292F30E0261702
:1017B00037076CF4FD01E20FF31F4081E0918304D1
:1017C000F0918404E20FF31F40839F5FEECF1092ED
:1017D000850460938604E0918F04F0919004CB011E
:1017E000099408950895FC0180899189891740F42E
:1017F0000684F785E02DE80FF11D808190E00895C3
:101800008FEF9FEF0895FC0190898189981748F424
:10181000A685B785A90FB11D2C9130E09F5F908BF5
:1018200002C02FEF3FEFC9010895FC01218930E08C
:101830008089A901481B5109CA010895CF92DF92FE
:10184000EF92FF920F931F93CF93DF938C01CB0105
:101850007A01D80157962C91222389F0EB016B0174
:10186000C40ED51ECC15DD0589F06991D801ED9126
:10187000FC910190F081E02DC8010995F3CFD801CA
:101880009896ED91FC919997642F0995C701DF9186
:10189000CF911F910F91FF90EF90DF90CF9008951F
:1018A000CF93DF931F92CDB7DEB7FC0169838789A1
:1018B0008823D1F0868990E02485358582179307A7
:1018C0003CF081E090E09383828380E090E015C05B
:1018D00089819589A389B489A90FB11D8C938589C4
:1018E0008F5F858B868B07C000A4F1A5E02D61E09A
:1018F000CE010196099581E090E00F90DF91CF91A4
:101900000895089580E090E008950E942720ECEB70
:10191000F0E080818A7B808360E082E10E94F60EA5
:1019200060E083E10C94F60E1092AE0381E08093A8
:10193000B0031092AF0361E082E10E94F60E61E015
:1019400083E10E94F60EE9EBF0E080818E7F8083D8
:1019500080818D7F808380E28093B80085E48093CE
:10196000BC0008951F920F920FB60F9211242F936F
:101970003F934F935F936F937F938F939F93AF9317
:10198000BF93EF93FF9384ED93E00E94200AFF91B1
:10199000EF91BF91AF919F918F917F916F915F91E7
:1019A0004F913F912F910F900FBE0F901F90189560
:1019B0001F920F920FB60F9211242F938F939F9324
:1019C000EF93FF93E091E403F091E5038081E091D0
:1019D000EA03F091EB0382FD12C090818091ED0348
:1019E0008F5F8F732091EE03821751F0E091ED032A
:1019F000F0E0EC52FC4F958F8093ED0301C08081A5
:101A0000FF91EF919F918F912F910F900FBE0F90AB
:101A10001F9018951F920F920FB60F9211242F93BB
:101A20003F934F935F936F937F938F939F93AF9366
:101A3000BF93EF93FF938091B900887F803609F4BC
:101A40009EC078F5883209F45DC090F4803109F4C5
:101A500056C038F4882309F4F5C0883009F44FC023
:101A6000F5C0883109F44EC0803209F45FC0EEC081
:101A7000803409F46AC058F4803309F457C08833BD
:101A800009F0E4C08093AD030E94C50ADFC0803531
:101A900009F44FC0883509F45DC0883409F0D6C018
:101AA000D3C0883909F4C4C0A8F4883709F467C0E2
:101AB00038F4883609F463C0803709F460C0C6C0C2
:101AC000883809F4B5C0803909F45FC0803809F05E
:101AD000BDC05BC0803B09F483C038F4803A09F490
:101AE00066C0883A09F47CC0B1C0803C09F4A4C047
:101AF000883C09F4A1C0883B09F487C0A7C0809145
:101B0000D30310C09091D2038091D103981770F540
:101B1000E091D20381E08E0F8093D203F0E0EF5486
:101B2000FC4F80818093BB0085EC83C08093AD0324
:101B30008BC0E091D20381E08E0F8093D20380911D
:101B4000BB00F0E0EF54FC4F80839091D203809172
:101B5000D1036BC0E091D20381E08E0F8093D2035A
:101B60008091BB00F0E0EF54FC4F80838091B00384
:101B700081116AC081E08093AF0384EA5EC083E094
:101B80008093AE031092AC03CFCF8091AC03803230
:101B900008F04EC0E091AC0381E08E0F8093AC035F
:101BA0008091BB00F0E0E457FC4F8083BDCF0E94E2
:101BB000C50A8091AC03803230F4E091AC03F0E0D0
:101BC000E457FC4F10826091AC0370E0E091710427
:101BD000F09172048CE893E009951092AC0336C042
:101BE00084E08093AE0310928B0310928A03E091FD
:101BF0007304F0917404099580918A03811105C0E2
:101C000081E080938A0310926A03E0918B0381E064
:101C10008E0F80938B03F0E0E659FC4F8081809318
:101C2000BB0090918B0380918A03981708F47CCFB6
:101C300085E88093BC000AC085EC8093BC001092BC
:101C4000AE0304C01092AD030E94CB0AFF91EF9146
:101C5000BF91AF919F918F917F916F915F914F91C4
:101C60003F912F910F900FBE0F901F9018950F93DB
:101C70001F93CF93DF93EC018B012097A9F06E8126
:101C80007F816017710781F00115110541F0611521
:101C9000710529F0C8010E943520892B29F0CE0159
:101CA0000E94E206EC01E9CFCE01DF91CF911F91B6
:101CB0000F910895FC0190819078692B60830895BD
:101CC000CF93DF93EC0188819981DC01ED91FC9148
:101CD0000190F081E02D09952A813B81820F931FAD
:101CE0009B838A83DF91CF910895CF93DF93EC019B
:101CF00088819981DC01ED91FC910280F381E02DD6
:101D000009952A813B81820F931F9B838A83DF91F0
:101D1000CF910895EF92FF920F931F93CF93DF938C
:101D2000CDB7DEB766970FB6F894DEBF0FBECDBF56
:101D30008C01CB01FE0177969F014AE0E42EF12C45
:101D4000B7010E94D01C805D8293CB010097C1F740
:101D5000A9014E1B5F0BBF01C8010E94750E66965C
:101D60000FB6F894DEBF0FBECDBFDF91CF911F91AC
:101D70000F91FF90EF9008953FB7F89480919806E7
:101D800090919906A0919A06B0919B0626B5A89BC2
:101D900005C02F3F19F00196A11DB11D3FBFBA2FFD
:101DA000A92F982F8827820F911DA11DB11DBC015D
:101DB000CD0143E0660F771F881F991F4A95D1F721
:101DC00008950F93CF93DF93C5E7D4E06B897C89A7
:101DD000EEA1FFA1082F21E04E898A8909951D8A6D
:101DE0001E8A1F8ADF91CF910F910895362F90E0C0
:101DF000FC01E85AFE4F4491FC01E35CFE4F249144
:101E0000FC01EE5DFE4F8491882309F44EC044230B
:101E1000C1F150E0FA013297ED30F10590F5E65A44
:101E2000FF4F0C94061D909180009F7703C0909106
:101E300080009F7D9093800024C09091B0009F7798
:101E400003C09091B0009F7D9093B0001AC0909114
:101E500090009F7703C0909190009F7D9093900099
:101E600010C09091A0009F7703C09091A0009F7D2B
:101E70009093A00006C094B59F7702C094B59F7D53
:101E800094BDE82FF0E0EE0FFF1FEA5EFE4FA59134
:101E9000B4919FB7F894311104C08C9120952823F8
:101EA00002C0EC912E2B2C939FBF08958F929F928E
:101EB000AF92BF92CF92DF92EF92FF926B017C01C3
:101EC0000E94BC0E4B015C01C114D104E104F10479
:101ED000F1F00E94BC0EDC01CB0188199909AA0916
:101EE000BB09883E9340A105B10570F321E0C21AF9
:101EF000D108E108F10888EE880E83E0981EA11C45
:101F0000B11CC114D104E104F10419F7DDCFFF9035
:101F1000EF90DF90CF90BF90AF909F908F900895FB
:101F20001F920F920FB60F9211242F933F938F930E
:101F30009F93AF93BF938091940690919506A09143
:101F40009606B09197063091930626E0230F2D3721
:101F500020F40296A11DB11D05C029E8230F0396A8
:101F6000A11DB11D2093930680939406909395062E
:101F7000A0939606B0939706809198069091990643
:101F8000A0919A06B0919B060196A11DB11D809368
:101F9000980690939906A0939A06B0939B06BF91DA
:101FA000AF919F918F913F912F910F900FBE0F9006
:101FB0001F901895CF93DF93CDB7DEB7CF57D109D8
:101FC0000FB6F894DEBF0FBECDBF789484B58360A2
:101FD00084BD85B5836085BD80916E0081608093EE
:101FE0006E0082E080938100809181008160809307
:101FF0008100809180008160809380008091B10099
:1020000084608093B1008091B00081608093B000C3
:102010008091910083608093910080919000816015
:10202000809390008091A10083608093A1008091B3
:10203000A00081608093A00086E880937A001092CF
:10204000C100BEEACB2EB2E0DB2ED601EEE0F0E01E
:1020500091E29093570084918D933196E831F10588
:10206000C1F70DEE12E0A9E3EA2EA1E0FA2ED601A7
:102070008D916D011F928F93FF92EF921F930F939B
:102080000E943E20080F191F0F900F900F900F9085
:102090000F900F90B8EBCB16B2E0DB0641F745EAA4
:1020A00054E06EE371E08EEA94E00E9476097C01D0
:1020B000892B09F454C08091A5049091A604C09086
:1020C000A704D090A8048C159D05C8F4ADEEB2E02D
:1020D000FC012D91AF014F5F5F4F3081231304C08E
:1020E000FA012111F6CF07C0DF0131962C912111A1
:1020F000FBCFCF01E8CF009711F00C941D19EDEE46
:10210000F2E001900020E9F731978F010D5E124057
:10211000C80101968C0D9D1D2091A9043091AA043F
:102120002817390720F481E08093AD0413C0909301
:10213000A8048093A704C114D10461F0A8016DEE36
:1021400072E0C6010E942C20F601E00FF11F108200
:102150000C941E1960E0C70104960E945A0EE0918B
:10216000E403F091E50382E08083E091E003F091E5
:10217000E1031082E091E203F091E30388E08083C1
:102180001092EC03E091E803F091E90386E080838C
:10219000E091E603F091E703808188698083E09114
:1021A000E603F091E70380818F7D808310928504A0
:1021B0001092860410928A0410928B04E09191048C
:1021C000F091920409958E010F5F1F4F7E01EEE49E
:1021D000EE0EF11CA701425F5F4FE7965FAF4EAF77
:1021E000E79760900C0170900D0180900E01809136
:1021F0000F0190911001A0911101C358DF4F888306
:102200009983AA83CD57D0402090120130901301BA
:10221000409014018091000190910101A091020170
:10222000B091030180349244AF40B10508F4B7C6C1
:10223000109200011092010110920201109203010C
:10224000A80165E070E080E50E948006882309F41B
:1022500056C68B8190E0982F88272A81820F911D86
:1022600090930403809303038D8190E0982F882737
:102270002C81820F911D9093060380930503A80182
:1022800065E070E081E50E948006882309F437C686
:102290008B8190E0982F88272A81820F911D90933F
:1022A0000803809307038D8190E0982F88272C8165
:1022B000820F911D90930A0380930903A80165E0A2
:1022C00070E084E50E948006882309F418C68B819B
:1022D00090E0982F88272A81820F911D90930C03FC
:1022E00080930B038D8190E0982F88272C81820F9B
:1022F000911D90930E0380930D03A80165E070E09B
:1023000083E50E948006882309F4F9C58B8190E05B
:10231000982F88272A81820F911D90931003809314
:102320000F038D8190E0982F88272C81820F911DBB
:102330009093120380931103A80162E070E083E0A0
:102340000E948006882309F4DAC58A8190E0982FDC
:1023500088272981820F911D90931603809315037E
:10236000A80162E070E086E10E948006882309F4FB
:10237000C6C58A8190E0982F88272981820F911DF8
:102380009093180380931703A80163E070E085E53C
:102390000E948006882309F4B2C58A8180931903BC
:1023A0008B8180931A03A80163E070E086E50E94A8
:1023B0008006882309F4A3C58B8190E0982F882795
:1023C0002A81820F911D90931C0380931B03A80107
:1023D00063E070E087E50E948006882309F48FC5DA
:1023E0008B8190E0982F88272A81820F911D9093EE
:1023F0001E0380931D03A80163E070E088E50E943E
:102400008006882309F47BC58B8190E0982F88276C
:102410002A81820F911D9093200380931F03A801AE
:1024200062E070E08BE20E948006882309F467C5B1
:102430008A8190E0982F88272981820F911D90939F
:10244000220380932103A80162E070E08CE20E94E5
:102450008006882309F453C58A8190E0982F882745
:102460002981820F911D9093240380932303A80157
:1024700062E070E08DE20E948006882309F43FC587
:102480008A8190E0982F88272981820F911D90934F
:10249000260380932503A80162E070E089E00E9492
:1024A0008006882309F42BC58A8190E0982F88271D
:1024B0002981820F911D9093280380932703A801FF
:1024C00062E070E08AE00E948006882309F417C564
:1024D0008A8190E0982F88272981820F911D9093FF
:1024E0002E0380932D03A80162E070E08BE00E9430
:1024F0008006882309F403C58A8190E0982F8827F5
:102500002981820F911D9093300380932F03A8019E
:1025100062E070E08FE00E948006882309F4EFC437
:102520008A8190E0982F88272981820F911D9093AE
:10253000340380933303A80162E070E080E10E94DD
:102540008006882309F4DBC48A8190E0982F8827CD
:102550002981820F911D9093360380933503A80142
:1025600062E070E081E10E948006882309F4C7C41C
:102570008A8190E0982F88272981820F911D90935E
:10258000380380933703A80162E070E082E10E9483
:102590008006882309F4B3C48A8190E0982F8827A5
:1025A0002981820F911D90933A0380933903A801EA
:1025B00062E070E083E10E948006882309F49FC4F2
:1025C0008A8190E0982F88272981820F911D90930E
:1025D0003C0380933B03A80162E070E087E10E9426
:1025E0008006882309F48BC48A8190E0982F88277D
:1025F0002981820F911D9093320380933103A801AA
:1026000061E070E08DE00E948006882309F477C4C1
:102610008A8180933D03A80161E070E08EE00E9412
:102620008006882309F46BC48A8180933E03A80145
:1026300061E070E08FE40E948006882309F45FC4A3
:102640008A8180933F03A80161E270E081E70E94E4
:102650008006882309F453C48B8190E0982F882743
:102660002A81820F911D90934103809340038D81B5
:1026700090E0982F88272C81820F911D909343031F
:10268000809342038F8190E0982F88272E81820FBC
:10269000911D9093450380934403898590E0982F82
:1026A00088272885820F911D9093470380934603C6
:1026B0008B8590E0982F88272A85820F911D909313
:1026C0004903809348038D8590E0982F88272C85B7
:1026D000820F911D90934B0380934A038F8590E066
:1026E000982F88272E85820F911D90934D038093FC
:1026F0004C03898990E0982F88272889820F911DA3
:1027000090934F0380934E038B8990E0982F8827F6
:102710002A89820F911D90935103809350038D89D4
:1027200090E0982F88272C89820F911D9093530356
:10273000809352038F8990E0982F88272E89820FEB
:10274000911D9093550380935403898D90E0982FA9
:102750008827288D820F911D9093570380935603ED
:102760008B8D90E0982F88272A8D820F911D909352
:102770005903809358038D8D90E0982F88272C8DD6
:10278000820F911D90935B0380935A038F8D90E08D
:10279000982F88272E8D820F911D90935D03809333
:1027A0005C03A8016FE070E082E70E948006882346
:1027B00009F4A5C38B8190E0982F88272A81820F86
:1027C000911D90932C0380932B038D8190E0982F83
:1027D00088272C81820F911D90932A0380932903CF
:1027E0008F8190E0982F88272E81820F911D9093E2
:1027F0005F0380935E03898590E0982F8827288562
:10280000820F911D90936103809360038B8590E00C
:10281000982F88272A85820F911D909363038093B8
:1028200062038D8590E0982F88272C85820F911D5B
:1028300090936503809364038F8590E0982F882799
:102840002E85820F911D909367038093660389897B
:1028500090E0982F88272889820F911D9093690313
:1028600080936803C0900303D090040345EA54E0CA
:1028700065E471E08EEA94E00E947609B6010E9458
:102880006506C0900503D090060345EA54E06BE46A
:1028900071E08EEA94E00E947609B6010E94650616
:1028A000C0900703D090080345EA54E061E571E069
:1028B0008EEA94E00E947609B6010E946506C090F7
:1028C0000903D0900A0345EA54E067E571E08EEA17
:1028D00094E00E947609B6010E946506C0900B0341
:1028E000D0900C0345EA54E06DE571E08EEA94E087
:1028F0000E947609B6010E946506C0900D03D09033
:102900000E0345EA54E062E671E08EEA94E00E942C
:102910007609B6010E946506C0900F03D09010039F
:1029200045EA54E067E671E08EEA94E00E94760999
:10293000B6010E946506C0901103D090120345EACB
:1029400054E06EE671E08EEA94E00E947609B601EA
:102950000E946506C0901303D090140345EA54E02A
:1029600065E771E08EEA94E00E947609B6010E9464
:102970006506C0901503D090160345EA54E069E758
:1029800071E08EEA94E00E947609B6010E94650625
:10299000C0901703D090180345EA54E06CE771E04B
:1029A0008EEA94E00E947609B6010E946506D090F6
:1029B000190345EA54E06FE771E08EEA94E00E9463
:1029C00076096D2D0E944B06D0901A0345EA54E01B
:1029D00062E871E08EEA94E00E9476096D2D0E9413
:1029E0004B06C0901B03D0901C0345EA54E065E8F9
:1029F00071E08EEA94E00E947609B6010E946506B5
:102A0000C0901D03D0901E0345EA54E068E871E0D1
:102A10008EEA94E00E947609B6010E946506C09095
:102A20001F03D090200345EA54E06BE871E08EEA82
:102A300094E00E947609B6010E946506C0902103C9
:102A4000D090220345EA54E060E971E08EEA94E018
:102A50000E947609B6010E946506C0902303D090BB
:102A6000240345EA54E065E971E08EEA94E00E94AF
:102A70007609B6010E946506C0902503D090260312
:102A800045EA54E06BE971E08EEA94E00E94760931
:102A9000B6010E946506C0902703D090280345EA3E
:102AA00054E061EA71E08EEA94E00E947609B60192
:102AB0000E946506C0902903D0902A0345EA54E09D
:102AC00064EA71E08EEA94E00E947609B6010E9401
:102AD0006506C0902B03D0902C0345EA54E068EAC9
:102AE00071E08EEA94E00E947609B6010E946506C4
:102AF000C0902D03D0902E0345EA54E06FE971E0B9
:102B00008EEA94E00E947609B6010E946506C090A4
:102B10002F03D090300345EA54E06EEA71E08EEA6C
:102B200094E00E947609B6010E946506C0903103C8
:102B3000D090320345EA54E063EB71E08EEA94E012
:102B40000E947609B6010E946506C0903303D090BA
:102B5000340345EA54E06AEB71E08EEA94E00E94A7
:102B60007609B6010E946506C0903503D090360301
:102B700045EA54E064EC71E08EEA94E00E94760944
:102B8000B6010E946506C0903703D090380345EA2D
:102B900054E06CEC71E08EEA94E00E947609B60194
:102BA0000E946506C0903903D0903A0345EA54E08C
:102BB00060ED71E08EEA94E00E947609B6010E9411
:102BC0006506C0903B03D0903C0345EA54E065EDB8
:102BD00071E08EEA94E00E947609B6010E946506D3
:102BE000D0903D0345EA54E06AED71E08EEA94E04E
:102BF0000E9476096D2D0E944B06D0903E0345EA57
:102C000054E061EE71E08EEA94E00E9476096D2D49
:102C10000E944B06D0903F0345EA54E068EE71E015
:102C20008EEA94E00E9476096D2D0E944B06C090BA
:102C30004003D090410345EA54E06CEE71E08EEA27
:102C400094E00E947609B6010E946506C090420396
:102C5000D090430345EA54E060EF71E08EEA94E0DF
:102C60000E947609B6010E946506C0904403D09088
:102C7000450345EA54E064EF71E08EEA94E00E9477
:102C80007609B6010E946506C0904603D0904703BE
:102C900045EA54E068EF71E08EEA94E00E9476091C
:102CA000B6010E946506C0904803D090490345EAEA
:102CB00054E06CEF71E08EEA94E00E947609B60170
:102CC0000E946506C0904A03D0904B0345EA54E049
:102CD00060E072E08EEA94E00E947609B6010E94FC
:102CE0006506C0904C03D0904D0345EA54E064E083
:102CF00072E08EEA94E00E947609B6010E946506B1
:102D0000C0904E03D0904F0345EA54E068E072E073
:102D10008EEA94E00E947609B6010E946506C09092
:102D20005003D090510345EA54E06CE072E08EEA23
:102D300094E00E947609B6010E946506C090520395
:102D4000D090530345EA54E060E172E08EEA94E0EB
:102D50000E947609B6010E946506C0905403D09087
:102D6000550345EA54E065E172E08EEA94E00E9482
:102D70007609B6010E946506C0905603D0905703AD
:102D800045EA54E06AE172E08EEA94E00E94760936
:102D9000B6010E946506C0905803D090590345EAD9
:102DA00054E06FE172E08EEA94E00E947609B60189
:102DB0000E946506C0905A03D0905B0345EA54E038
:102DC00064E272E08EEA94E00E947609B6010E9405
:102DD0006506C0905C03D0905D0345EA54E069E26B
:102DE00072E08EEA94E00E947609B6010E946506C0
:102DF000C0905E03D0905F0345EA54E06EE272E05B
:102E00008EEA94E00E947609B6010E946506C090A1
:102E10006003D090610345EA54E066E372E08EEA15
:102E200094E00E947609B6010E946506C090620394
:102E3000D090630345EA54E06EE372E08EEA94E0DA
:102E40000E947609B6010E946506C0906403D09086
:102E5000650345EA54E066E472E08EEA94E00E947D
:102E60007609B6010E946506C0906603D09067039C
:102E700045EA54E06FE472E08EEA94E00E9476093D
:102E8000B6010E946506C0906803D090690345EAC8
:102E900054E067E572E08EEA94E00E947609B6019C
:102EA0000E94650645EA54E06EE572E08EEA94E021
:102EB0000E9476096C01009751F068E004960E9428
:102EC0005A0ED6011D921D921D921C92139745EA2F
:102ED00054E065E672E08EEA94E00E9476096C01A7
:102EE000009769F068E004960E945A0E81E090E035
:102EF000A0E0B0E0F60180839183A283B383809148
:102F0000020381114CC080E480937C0080917A00A0
:102F1000806480937A0080917A0086FDFCCF609176
:102F200078008091790070E0782B072E000C880BD8
:102F3000990B0E94560F8DEE92E09F938F938BE634
:102F400092E09F938F931F930F930E943E20F8016E
:102F500001900020E9F73197AF01401B510BB801F8
:102F600084ED93E00E94AF0984ED93E00E94880A0B
:102F70006AE070E080E090E00E94560F0F900F90A2
:102F80000F900F900F900F9084ED93E00E940A0A2B
:102F9000892B29F084ED93E00E94E809F5CF809118
:102FA000000190910101A0910201B09103010196ED
:102FB000A11DB11D8093000190930101A093020116
:102FC000B0930301A7014E5D5F4FE5965FAF4EAF33
:102FD000E59757015DE0A50EB11CC7010996ED9676
:102FE0009FAF8EAFED9784ED93E00E940A0A892B84
:102FF00009F41FC184ED93E00E94E8098B3751F476
:1030000091E09093EC021092EB021092EA0280930E
:10301000B802E9CF9091EC02992329F38C3519F38A
:103020002091EA023091EB022F5F3F4F3093EB0289
:103030002093EA02F901E854FD4F2B32310524F4C4
:103040008D3711F08083CFCF8DE780831092EC0213
:103050001092EB021092EA02E796EEADFFADE79711
:10306000D7011196FC93EE931396FC93EE9312976F
:10307000E5964EAD5FADE59715965C934E9314972C
:1030800017965C934E93169718961C9260E0C501B4
:103090000E945A0ED7018D919C91119713969C9383
:1030A0008E93129716968D919C91179715969C93D7
:1030B0008E93149718961C9260E0C5010E945A0ED8
:1030C000E8EBF2E0E996FFAFEEAFE997EB968CAD57
:1030D0009DADAEADBFADEB97CF0189839A83AB8336
:1030E000BC831D82FF83EE831986FB86EA862E96BB
:1030F0001FAE1EAE2E972AE040E0ED966EAD7FAD7E
:10310000ED97C8010E94C8042E968EAD9FAD2E97F4
:10311000009791F48885882369F0D7011D968C91DA
:10312000982F9F779C3019F08D77883019F483E0C1
:1031300090E002C080E090E0892B09F054CFF701C5
:10314000858585FF12C06EE371E0818592850E94BE
:10315000370EFC01892B49F094819F77945092306F
:1031600020F40190F081E02D02C0E0E0F0E09F014A
:103170006DEE72E081E041E053E04617570751F0F1
:10318000D9014D919D01DB019D91BD01491799F335
:1031900080E0F1CF90819F3319F0882309F423CF89
:1031A00081E08093020384ED93E09A8389831C82FB
:1031B0001B82EEEAF4E0309729F0B801CF010E94BB
:1031C000EF0605C06BE772E0C8010E944D0484ED74
:1031D00093E00E94880A6AE070E080E090E00E943C
:1031E000560F84ED93E00E940A0A892B29F084EDA2
:1031F00093E00E94E809F5CFD7011D968C911D97A9
:1032000085FF26C060E872E019968D919C911A970F
:103210000E94370E0097E1F00E945704892BC1F0FD
:10322000E3966DAE7EAE8FAEE39729823A824B82F3
:103230001EC00E94AA0A0C940A116C0165E0C70125
:1032400004960E945A0EF701D182C0820C94AF10EE
:10325000E3966DAE7EAE8FAEE397C358DF4F8881A5
:103260009981AA81CD57D04089839A83AB83CC249E
:10327000C394C0928C048BE0D82ED0928704109215
:103280008A0410928B0443E050E0BE0160597F4FE6
:1032900085E794E00E941E0C81E00E94E10EC0923E
:1032A0008C04D092870410928A0410928B0443E01D
:1032B00050E0B80185E794E00E941E0C81E00E9476
:1032C000E10E91CECF93DF93C5E7D4E08E859F8545
:1032D0000E949E1F8B899C89DF91CF910C949E1F29
:1032E000CF93DF93E4EDF3E01382128288EE93E054
:1032F000A0E0B0E084839583A683B78329E131E021
:103300003183208325EC30E03587248724EC30E0BE
:103310003787268720EC30E0318B208B21EC30E0A2
:10332000338B228B22EC30E0358B248B26EC30E083
:10333000378B268B118E128E138E148EC5E7D4E038
:103340001B821A828C839D83AE83BF838BE291E0C4
:103350009983888380E290E09D878C870E94061F76
:103360009F878E87188A198A1A8A80E290E00E94C5
:10337000061F9C8B8B8B1D8A1E8A1F8A84E99CE00A
:103380009D8F8C8F87E89CE09F8F8E8F87EB9BE0D3
:1033900099A388A383EA9BE09BA38AA38BE59BE088
:1033A0009DA38CA385E09BE09FA38EA38DED9AE067
:1033B00099A788A785ED9AE09BA78AA78BEC9AE04E
:1033C0009DA78CA785EC9AE09FA78EA787EC9BE032
:1033D00090937204809371048BEB9BE09093740440
:1033E00080937304E5EAF4E083EB94E091838083B7
:1033F0009383828383E996E095838483978386838E
:10340000108660E082EB94E0DF91CF910C945A0E2D
:10341000ABE0B0E0EEE0FAE10C94991C6C017B01AA
:103420008A01FC0117821682838181FFCCC1CE0103
:1034300001963C01F6019381F70193FD859193FF7D
:1034400081917F01882309F4BAC1853239F493FD53
:10345000859193FF81917F01853229F4B60190E037
:103460000E94FF1BE7CF912C212C312CFFE1F3159B
:10347000D8F08B3279F038F4803279F08332A1F4CD
:10348000232D20611DC08D3261F0803369F4232D1E
:10349000216016C0832D8260382EE32DE4603E2E1D
:1034A0002AC0F32DF8601DC037FC2DC020ED280F79
:1034B0002A3040F08E32B9F436FC81C1232D2064CD
:1034C000322E19C036FE06C08AE0989E200D1124C7
:1034D000922E11C0EAE02E9E200D1124222EF32DF3
:1034E000F0623F2E08C08C3621F4832D8068382E80
:1034F00002C0883641F4F70193FD859193FF8191D5
:103500007F018111B3CF982F9F7D9554933028F47C
:103510000C5F1F4F9FE399830DC0833631F08337D3
:1035200071F0833509F059C021C0F8018081898389
:103530000E5F1F4F88248394912C530113C02801E0
:10354000F2E04F0E511CF801A080B18036FE03C09E
:10355000692D70E002C06FEF7FEFC5010E94F41B80
:103560004C018201F32DFF773F2E16C0280122E087
:10357000420E511CF801A080B18036FE03C0692DB7
:1035800070E002C06FEF7FEFC5010E94E91B4C01A4
:10359000F32DF0683F2E820133FC1BC0822D90E09A
:1035A00088169906B0F4B60180E290E00E94FF1BF5
:1035B0002A94F4CFF50137FC859137FE81915F01A4
:1035C000B60190E00E94FF1B21102A9421E0821A8C
:1035D00091088114910471F7E8C0843611F089369E
:1035E00041F5F80137FE07C06081718182819381C6
:1035F0000C5F1F4F08C060817181072E000C880B83
:10360000990B0E5F1F4FF32DFF763F2E97FF09C0DA
:1036100090958095709561957F4F8F4F9F4FF06883
:103620003F2E2AE030E0A3010E943B1C882E861822
:1036300045C0853731F4232D2F7EB22E2AE030E0AD
:1036400025C0932D997FB92E8F36C1F018F4883597
:1036500079F0B5C0803719F0883721F0B0C0E92F74
:10366000E061BE2EB4FE0DC0FB2DF460BF2E09C07C
:1036700034FE0AC0292F2660B22E06C028E030E0B2
:1036800005C020E130E002C020E132E0F801B7FEE1
:1036900007C060817181828193810C5F1F4F06C0DA
:1036A0006081718180E090E00E5F1F4FA3010E9456
:1036B0003B1C882E8618FB2DFF773F2E36FE0DC053
:1036C000232D2E7FA22E891458F434FE0BC032FC19
:1036D00009C0832D8E7EA82E05C0B82CA32C03C054
:1036E000B82C01C0B92CA4FE0FC0FE01E80DF11DDD
:1036F0008081803321F49A2D997EA92E09C0A2FEE3
:1037000006C0B394B39404C08A2D867809F0B394AC
:10371000A3FC11C0A0FE06C0B21488F4280C922CA1
:103720009B180EC0B21460F4B60180E290E00E94D3
:10373000FF1BB394F7CFB21418F42B1802C0982CC7
:10374000212CA4FE10C0B60180E390E00E94FF1B74
:10375000A2FE17C0A1FC03C088E790E002C088E584
:1037600090E0B6010CC08A2D867859F0A1FE02C007
:103770008BE201C080E2A7FC8DE2B60190E00E94DE
:10378000FF1B891438F4B60180E390E00E94FF1B10
:103790009A94F7CF8A94F301E80DF11D8081B60168
:1037A00090E00E94FF1B8110F5CF222009F442CE49
:1037B000B60180E290E00E94FF1B2A94F6CFF6014A
:1037C0008681978102C08FEF9FEF2B96E2E10C94E8
:1037D000B51CFC010590615070400110D8F7809530
:1037E00090958E0F9F1F0895FC01615070400190CD
:1037F0000110D8F7809590958E0F9F1F08950F9315
:103800001F93CF93DF93FB01238121FD03C08FEF33
:103810009FEF2CC022FF16C046815781248135813D
:103820004217530744F4A081B1819D012F5F3F4FA0
:10383000318320838C93268137812F5F3F4F3783DD
:10384000268314C08B01EC01FB010084F185E02D7F
:103850000995892BE1F6D80116968D919C911797C1
:10386000019617969C938E931697CE01DF91CF9178
:103870001F910F910895FA01AA27283051F12031A4
:1038800081F1E8946F936E7F6E5F7F4F8F4F9F4FF4
:10389000AF4FB1E03ED0B4E03CD0670F781F891F36
:1038A0009A1FA11D680F791F8A1F911DA11D6A0F04
:1038B000711D811D911DA11D20D009F468943F91B7
:1038C0002AE0269F11243019305D3193DEF6CF01B6
:1038D0000895462F4770405D4193B3E00FD0C9F77C
:1038E000F6CF462F4F70405D4A3318F0495D31FDE9
:1038F0004052419302D0A9F7EACFB4E0A69597953C
:10390000879577956795BA95C9F700976105710511
:1039100008959B01AC010A2E06945795479537955B
:103920002795BA95C9F7620F731F841F951FA01DB5
:1039300008952F923F924F925F926F927F928F9253
:103940009F92AF92BF92CF92DF92EF92FF920F932E
:103950001F93CF93DF93CDB7DEB7CA1BDB0B0FB638
:10396000F894DEBF0FBECDBF09942A8839884888F5
:103970005F846E847D848C849B84AA84B984C8848B
:10398000DF80EE80FD800C811B81AA81B981CE0F82
:10399000D11D0FB6F894DEBF0FBECDBFED01089567
:1039A00097FB072E16F4009407D077FD09D00E94EC
:1039B000171D07FC05D03EF4909581959F4F089503
:1039C000709561957F4F0895A1E21A2EAA1BBB1B2B
:1039D000FD010DC0AA1FBB1FEE1FFF1FA217B307DB
:1039E000E407F50720F0A21BB30BE40BF50B661FF1
:1039F000771F881F991F1A9469F7609570958095B5
:103A000090959B01AC01BD01CF010895EE0FFF1F02
:103A10000590F491E02D09940E942B1DA59F900D17
:103A2000B49F900DA49F800D911D11240895AA1B91
:103A3000BB1B51E107C0AA1FBB1FA617B70710F099
:103A4000A61BB70B881F991F5A95A9F780959095CB
:103A5000BC01CD010895A29FB001B39FC001A39FF7
:103A6000700D811D1124911DB29F700D811D1124B7
:103A7000911D08955058BB27AA270E94521D0C94EF
:103A80005A1E0E944C1E38F00E94531E20F039F43A
:103A90009F3F19F426F40C94491E0EF4E095E7FBC1
:103AA0000C94431EE92F0E946B1E58F3BA1762074D
:103AB00073078407950720F079F4A6F50C948D1E02
:103AC0000EF4E0950B2EBA2FA02D0B01B901900139
:103AD0000C01CA01A0011124FF27591B99F0593F7D
:103AE00050F4503E68F11A16F040A22F232F342FC5
:103AF0004427585FF3CF469537952795A795F04013
:103B00005395C9F77EF41F16BA0B620B730B840B27
:103B1000BAF09150A1F0FF0FBB1F661F771F881FDF
:103B2000C2F70EC0BA0F621F731F841F48F4879537
:103B300077956795B795F7959E3F08F0B0CF939529
:103B4000880F08F09927EE0F9795879508950E94A2
:103B50001F1E08F481E008950E94B31D6894B111FE
:103B60000C948E1E08950E94731E88F09F5798F043
:103B7000B92F9927B751B0F0E1F0660F771F881F72
:103B8000991F1AF0BA95C9F714C0B13091F00E948C
:103B90008D1EB1E008950C948D1E672F782F882715
:103BA000B85F39F0B93FCCF3869577956795B395B3
:103BB000D9F73EF490958095709561957F4F8F4F22
:103BC0009F4F0895E89409C097FB3EF49095809527
:103BD000709561957F4F8F4F9F4F9923A9F0F92FD3
:103BE00096E9BB279395F695879577956795B79551
:103BF000F111F8CFFAF4BB0F11F460FF1BC06F5F37
:103C00007F4F8F4F9F4F16C0882311F096E911C048
:103C1000772321F09EE8872F762F05C0662371F069
:103C200096E8862F70E060E02AF09A95660F771F7D
:103C3000881FDAF7880F9695879597F90895990F59
:103C40000008550FAA0BE0E8FEEF16161706E80766
:103C5000F907C0F012161306E407F50798F0621B87
:103C6000730B840B950B39F40A2661F0232B242B5C
:103C7000252B21F408950A2609F4A140A6958FEF7B
:103C8000811D811D089597F99F6780E870E060E0CD
:103C900008959FEF80EC089500240A9416161706E5
:103CA00018060906089500240A941216130614062D
:103CB00005060895092E0394000C11F4882352F090
:103CC000BB0F40F4BF2B11F460FF04C06F5F7F4F48
:103CD0008F4F9F4F089557FD9058440F551F59F02F
:103CE0005F3F71F04795880F97FB991F61F09F3FE9
:103CF00079F087950895121613061406551FF2CF12
:103D00004695F1DF08C0161617061806991FF1CF61
:103D100086957105610508940895E894BB27662788
:103D20007727CB0197F908950E941F1E08F48FEFA3
:103D300008950E94AC1E0C945A1E0E944C1E38F02E
:103D40000E94531E20F0952311F00C94431E0C94F6
:103D5000491E11240C948E1E0E946B1E70F3959FB9
:103D6000C1F3950F50E0551F629FF001729FBB2772
:103D7000F00DB11D639FAA27F00DB11DAA1F649F0E
:103D80006627B00DA11D661F829F2227B00DA11DC1
:103D9000621F739FB00DA11D621F839FA00D611D47
:103DA000221F749F3327A00D611D231F849F600D68
:103DB000211D822F762F6A2F11249F5750409AF091
:103DC000F1F088234AF0EE0FFF1FBB1F661F771F1D
:103DD000881F91505040A9F79E3F510580F00C94E8
:103DE000431E0C948E1E5F3FE4F3983ED4F38695F9
:103DF00077956795B795F795E7959F5FC1F7FE2B88
:103E0000880F911D9695879597F908950F931F93A5
:103E1000CF93DF938230910510F482E090E0E0913F
:103E20009E06F0919F0620E030E0A0E0B0E03097E1
:103E300019F1408151810281138148175907C8F057
:103E40008417950769F4109731F012960C93129726
:103E500013961C9327C000939E0610939F0622C0C2
:103E60002115310519F04217530718F49A01BD01C5
:103E7000EF01DF01F801DBCF21153105F9F0281B37
:103E8000390B2430310580F48A819B8161157105DD
:103E900021F0FB019383828304C090939F0680935B
:103EA0009E06FE01329644C0FE01E20FF31F81938D
:103EB000919322503109398328833AC020919C067E
:103EC00030919D06232B41F4209108013091090186
:103ED00030939D0620939C062091060130910701A6
:103EE0002115310541F42DB73EB740910A0150919B
:103EF0000B01241B350BE0919C06F0919D06E21707
:103F0000F307A0F42E1B3F0B2817390778F0AC01FC
:103F10004E5F5F4F2417350748F04E0F5F1F5093D9
:103F20009D0640939C068193919302C0E0E0F0E0EF
:103F3000CF01DF91CF911F910F910895CF93DF9320
:103F4000009709F481C0FC01329713821282A0917C
:103F50009E06B0919F06109781F420813181820FD7
:103F6000931F20919C0630919D062817390751F523
:103F7000F0939D06E0939C0667C0ED0120E030E0E1
:103F8000CE17DF0740F44A815B819E014115510540
:103F9000F1F0EA01F5CFD383C28340815181840FD0
:103FA000951FC817D90759F488819981840F951FE7
:103FB0000296918380838A819B81938382832115DA
:103FC000310529F4F0939F06E0939E063DC0E90178
:103FD000FB83EA8349915991C40FD51FEC17FD0764
:103FE00061F480819181840F951F0296E901998384
:103FF0008883828193819B838A83E0E0F0E012963C
:104000008D919C911397009719F0FD01DC01F7CF7A
:104010008D919C9111979D012E5F3F4F820F931FB1
:1040200020919C0630919D062817390769F4309736
:1040300029F410929F0610929E0602C013821282EB
:10404000B0939D06A0939C06DF91CF91089581E0E7
:1040500090E0F8940C946020FB01DC0102C0019018
:104060000D9241505040D8F70895FB01DC018D912D
:10407000019080190110D9F3990B0895AEE0B0E0DA
:10408000E4E4F0E20C94A71C0D891E8986E08C8381
:104090001A8309838FEF9FE79E838D83AE01475E6E
:1040A0005F4F6F89788DCE0101960E94081AEF81CB
:1040B000F885E00FF11F10822E96E4E00C94C31CEB
:1040C00010E0CBEBD0E004C0FE010E94061D21965B
:0A40D000CC3BD107C9F7F894FFCFED
:1040DA00A086010001000000A00620002B97112BEA
:1040EA0001002B030000000000410AAF09D909882A
:1040FA000A0A0AE809FC0900000000500C1E0C829A
:10410A000CF20B150C030CF30B25303258005061DE
:10411A00636B49440053415F41420053415F43444A
:10412A000053535F41420053535F4344004F535F70
:10413A0041004F535F42005046535F414200504690
:10414A00535F43440050464100424D0042530054DD
:10415A0053004353004753004D5300414645530013
:10416A0048464554004750494F53004750494F432A
:10417A000050560056415600454176675600417632
:10418A006743004379636C65730043617052656DE0
:10419A0061696E0043617046756C6C00525445004B
:1041AA004154544500415454460052656C536F4380
:1041BA0000416273536F4300536F48004356310006
:1041CA0043563200435633004356340043563500B3
:1041DA004356360043563700435638004356390093
:1041EA004356313000435631310043563132004391
:1041FA005631330043563134004356313500545357
:10420A003154656D700054533254656D70005453C7
:10421A003354656D700043656C6C54656D7000466F
:10422A00455454656D7000496E54656D7000434184
:10423A004E636F6C004657566572007B225061636D
:10424A006B4944223A222573227D006E756C6C00FC
:10425A004F7574707574002F2F22225C5C62086699
:10426A000C6E0A720D740900652D00747275650072
:06427A0066616C73650033
:00000001FF
