:100000000C9458000C9480000C9480000C94800098
:100010000C9480000C9480000C9480000C94800060
:100020000C9480000C9480000C9480000C94800050
:100030000C9480000C9480000C9480000C94800040
:100040000C94E6030C9480000C9438030C94120377
:100050000C9480000C9480000C9480000C94800020
:100060000C9430040C94800000000000250028004F
:100070002B00040404040404040402020202020229
:10008000030303030303010204081020408001025C
:1000900004081020010204081020000000080002DB
:1000A000010000030407000000000000000015101C
:1000B00011241FBECFEFD8E0DEBFCDBF11E0A0E01E
:1000C000B1E0EEE4F4E202C005900D92AE32B10769
:1000D000D9F726E0AEE2B1E001C01D92A035B2072B
:1000E000E1F710E0C8E5D0E004C02197FE010E94CE
:1000F0001112C735D107C9F70E9417070C942512B2
:100100000C940000CF92DF92EF92FF920F931F9317
:10011000CF93DF936C017A018B01C0E0D0E0CE1564
:10012000DF0589F0D8016D918D01D601ED91FC912B
:100130000190F081E02DC6010995892B11F47E0113
:1001400002C02196ECCFC701DF91CF911F910F9193
:10015000FF90EF90DF90CF900895FC01538D448D78
:10016000252F30E0842F90E0821B930B541710F062
:10017000CF96089501970895FC01918D828D98176F
:1001800061F0828DDF01A80FB11D5D968C91928D7B
:100190009F5F9F73928F90E008958FEF9FEF089578
:1001A000FC01918D828D981731F0828DE80FF11D41
:1001B000858D90E008958FEF9FEF0895FC01918D5C
:1001C000228D892F90E0805C9F4F821B91098F7355
:1001D000992708958EED92E00E94DE0021E0892BA0
:1001E00009F420E0822F0895FC01848DDF01A80F1F
:1001F000B11DA35ABF4F2C91848D90E001968F734F
:100200009927848FA689B7892C93A089B1898C916D
:1002100080648C93938D848D981306C00288F38933
:10022000E02D80818F7D80830895EF92FF920F9360
:100230001F93CF93DF93EC0181E0888F9B8D8C8D92
:10024000981305C0E889F989808185FD24C0F62EC0
:100250000B8D10E00F5F1F4F0F731127E02E8C8D59
:10026000E8120CC00FB607FCFACFE889F989808143
:1002700085FFF5CFCE010E94F400F1CF8B8DFE01FA
:10028000E80FF11DE35AFF4FF0820B8FEA89FB89DB
:100290008081806207C0EE89FF896083E889F989DF
:1002A00080818064808381E090E0DF91CF911F9115
:1002B0000F91FF90EF900895CF93DF93EC01888D1D
:1002C0008823C9F0EA89FB89808185FD05C0A8895A
:1002D000B9898C9186FD0FC00FB607FCF5CF8081E0
:1002E00085FFF2CFA889B9898C9185FFEDCFCE012A
:1002F0000E94F400E7CFDF91CF91089580E090E075
:10030000892B29F00E94EA0081110C9400000895C5
:1003100085ED8093BC008091BC0084FDFCCF1092E1
:100320003001089540918C02262F30E0240F311DBA
:1003300021323105DCF4209130012430C9F4FC0174
:1003400080E090E0861758F430918C022191DC0116
:10035000A659BD4FA30FB11D2C930196F3CF8091E9
:100360008C02680F60938C0280E0089581E008950C
:1003700082E008950895E091340180913301E817F7
:1003800030F4F0E0E65BFD4F808190E008958FEF60
:100390009FEF08959091340180913301981750F4A4
:1003A000E92FF0E0E65BFD4F208130E09F5F909306
:1003B000340102C02FEF3FEFC9010895809133014E
:1003C00090E020913401821B91090895CF92DF9231
:1003D000EF92FF920F931F93CF93DF937C01262F11
:1003E000972F8A0180914902882391F0C62FD72F39
:1003F0006E01C40ED51ECC15DD0571F06991D701D3
:10040000ED91FC910190F081E02DC7010995F3CFAA
:10041000642F822F0E949201C801DF91CF911F911A
:100420000F91FF90EF90DF90CF900895CF93DF93DF
:100430001F92CDB7DEB76983209149022223D1F004
:1004400020913101203240F021E030E0FC01338383
:10045000228380E090E015C080913201E82FF0E027
:10046000E75DFD4F998190838F5F80933201809388
:10047000310105C061E0CE0101960E94920181E048
:1004800090E00F90DF91CF91089580E090E0089583
:10049000E5E3F1E020E030E02617370759F0DC0112
:1004A0004D91CD01419330936801209367012F5FF7
:1004B0003F4FF2CF80916701909168010196909330
:1004C00068018093670181E0809369010895089530
:1004D000089508950E9417124F925F926F927F9233
:1004E000EF92FF920F931F93CF93DF93CDB7DEB7B9
:1004F000A1970FB6F894DEBF0FBECDBF7C01FA0105
:10050000CB0119A2223008F42AE08E010F5D1F4FA3
:10051000422E512C612C712CBF01A30192010E942B
:10052000D011F901CA01015011096A3014F4605D5B
:1005300001C0695CD8016C93232B242B252B61F718
:100540000115110591F0F80101900020E9F73197AC
:10055000AF01401B510BD701ED91FC910280F3815B
:10056000E02DB801C701099502C080E090E0A19696
:100570000FB6F894DEBF0FBECDBFDF91CF911F91B4
:100580000F91FF90EF907F906F905F904F90089544
:100590008F929F92AF92BF92CF92DF92EF92FF9293
:1005A0000F931F93CF93DF937C01EB016C0182E0EB
:1005B000C80ED11C4701E5E08E0E911C00E010E052
:1005C000F60141916F0150E060E070E02AE0CE0159
:1005D0000E946C025C01E881F9810190F081E02DBC
:1005E0006EE2CE0109958A0D9B1D080F191FC814D4
:1005F000D90431F7F701458150E060E070E02AE06E
:10060000CE010E946C02800F911FDF91CF911F914C
:100610000F91FF90EF90DF90CF90BF90AF909F90A1
:100620008F9008951F920F920FB60F9211242F935F
:100630003F934F935F936F937F938F939F93AF936A
:10064000BF93EF93FF938EED92E00E94F400FF9131
:10065000EF91BF91AF919F918F917F916F915F913A
:100660004F913F912F910F900FBE0F901F901895B3
:100670001F920F920FB60F9211242F938F939F9377
:10068000EF93FF93E091EE02F091EF028081E09111
:10069000F402F091F50282FD12C090818091F70280
:1006A0008F5F8F732091F802821751F0E091F7026B
:1006B000F0E0E252FD4F958F8093F70201C08081F8
:1006C000FF91EF919F918F912F910F900FBE0F90FF
:1006D0001F90189590E0FC01E656FF4F3491FC0105
:1006E000EA57FF4F2491FC01EE58FF4FE491EE23AF
:1006F00009F43BC0332339F1333091F038F4313011
:10070000A9F0323001F584B58F7D12C0373091F0F9
:100710003830A1F03430B9F4809180008F7D03C06F
:10072000809180008F77809380000DC084B58F7793
:1007300084BD09C08091B0008F7703C08091B00064
:100740008F7D8093B000F0E0EE0FFF1FE859FF4F60
:10075000A591B4918FB7F894EC91611103C02095E5
:100760002E2301C02E2B2C938FBF0895823091052C
:1007700038F0880F991F880F991F05970197F1F797
:1007800008953FB7F8948091DA029091DB02A0912E
:10079000DC02B091DD0226B5A89B05C02F3F19F001
:1007A0000196A11DB11D3FBFBA2FA92F982F8827F1
:1007B000820F911DA11DB11DBC01CD0142E0660F4C
:1007C000771F881F991F4A95D1F708951F920F929E
:1007D0000FB60F9211242F933F938F939F93AF9354
:1007E000BF938091D6029091D702A091D802B09188
:1007F000D9023091D50223E0230F2D3720F4019642
:10080000A11DB11D05C026E8230F0296A11DB11D33
:100810002093D5028093D6029093D702A093D8025A
:10082000B093D9028091DA029091DB02A091DC02B0
:10083000B091DD020196A11DB11D8093DA02909363
:10084000DB02A093DC02B093DD02BF91AF919F91D8
:100850008F913F912F910F900FBE0F901F90189581
:100860001F920F920FB60F9211242F933F934F9325
:100870005F936F937F938F939F93AF93BF93EF9308
:10088000FF938091B900887F803609F49CC068F599
:10089000883209F45BC090F4803109F454C038F414
:1008A000882309F4F6C0883009F44DC0F6C08831B9
:1008B00009F44CC0803209F45DC0EFC0803409F403
:1008C00068C048F4803309F455C0883309F0E5C0A6
:1008D0008093B102D8C0803509F44FC0883509F43F
:1008E0005DC0883409F0D9C0D6C0883909F4C7C0C2
:1008F000A8F4883709F467C038F4883609F463C06F
:10090000803709F460C0C9C0883809F4B8C080399C
:1009100009F45FC0803809F0C0C05BC0803B09F4B7
:1009200086C038F4803A09F466C0883A09F47FC07A
:10093000B4C0803C09F4A7C0883C09F4A4C0883B3B
:1009400009F48AC0AAC08091D40210C09091D30249
:100950008091D202981770F5E091D30281E08E0F5A
:100960008093D302F0E0EE54FD4F80818093BB0072
:1009700085EC86C08093B1028EC0E091D30281E005
:100980008E0F8093D3028091BB00F0E0EE54FD4FB8
:1009900080839091D3028091D2026EC0E091D30205
:1009A00081E08E0F8093D3028091BB00F0E0EE5483
:1009B000FD4F808380912F0181116DC081E0809374
:1009C0002E0184EA61C083E0809330011092B0026E
:1009D000CFCF8091B002803208F051C0E091B002D8
:1009E00081E08E0F8093B0028091BB00F0E0E05771
:1009F000FD4F8083BDCF85EC8093BC001092300109
:100A00008091B002803230F4E091B002F0E0E05723
:100A1000FD4F10826091B00270E0E0918E02F09183
:100A20008F0280E992E009951092B00236C084E00E
:100A30008093300110928D0210928C02E0918A0214
:100A4000F0918B02099580918C02811105C081E0A3
:100A500080938C0210926A02E0918D0281E08E0FE9
:100A600080938D02F0E0E659FD4F80818093BB00BA
:100A700090918D0280918C02981708F479CF85E8C7
:100A80008093BC000AC085EC8093BC0010923001BA
:100A900004C01092B1020E948801FF91EF91BF91B2
:100AA000AF919F918F917F916F915F914F913F9106
:100AB0002F910F900FBE0F901F9018956F3F2FEF43
:100AC000720719F4FC0160817181CB018270992752
:100AD00060FF04C0892B31F495E007C0892B21F415
:100AE00091E003C09AE001C092E066FD02C021E0FF
:100AF00001C022E09E5F65FD02C031E001C034E02C
:100B0000920F64FD02C020E001C022E0390F687836
:100B10007727672B11F480E001C082E0230F820F5A
:100B20000895DC01ED91FC910190F081E02D099494
:100B3000EF92FF920F931F93CF93DF938B017A0174
:100B400091E0909349029BE0909328021092320129
:100B500010923101682F8BE793E00E94160280917A
:100B60003101813208F044C0909130019111FCCFE5
:100B700092E09093300110922F019FEF9093B10279
:100B80001092D3028093D202A9E2B2E022EB32E0CB
:100B9000F9019E2F921B981718F49D919193F9CF0C
:100BA0001092D4028091D40286618093D402809105
:100BB0002E01813061F410922E018091D402809335
:100BC000BB008091BC0083FDF8CF85EC01C085EEB1
:100BD0008093BC00809130018230E1F38091B102BA
:100BE0008F3F31F08091B102803211F08091B102DB
:100BF000109232011092310110924902809130011D
:100C00008111FCCF802F013208F080E291E09093B7
:100C1000300190932F012FEF2093B1021092D30255
:100C2000280F2093D2029093D4029091D40296611F
:100C30009093D40290912E01913061F410922E0184
:100C40009091D4029093BB009091BC0093FDF8CF9B
:100C500095EC01C095EE9093BC00909130019130DD
:100C6000E1F39091D302981710F48091D302A2EB94
:100C7000B2E02AE432E0F9019E2F921B981718F493
:100C80009D919193F9CF1092340180933301E70144
:100C9000CE018E199F098017910734F48BE793E0FA
:100CA0000E94CA018993F4CF81E0DF91CF911F9117
:100CB0000F91FF90EF900895FC01680F791F90E06D
:100CC00057E9E617F70789F0419188E0A42FA92793
:100CD000292F30E035952795922FA0FF02C0952F40
:100CE00092274695815091F7ECCF892F0895CF92A6
:100CF000DF92EF92FF92FC019C01260F371F8FEFCE
:100D00009FEFDC01E217F307D9F04191842749E016
:100D10004150C1F36C017D01F694E794D794C794D8
:100D200080FF0BC0D701C60150E2852753E8952705
:100D300058EBA5275DEEB527EBCFD701C601E8CF6D
:100D4000BC01CD016095709580959095FF90EF90D6
:100D5000DF90CF9008958F929F92AF92BF92CF92E3
:100D6000DF92EF92FF926B017C010E94C1034B0165
:100D70005C010E94C103DC01CB0188199909AA0911
:100D8000BB098C159D05AE05BF0540F58091870315
:100D900090918803DC01ED91FC910084F185E02DB8
:100DA0000995892B31F30E94C10360938A037093E4
:100DB0008B0380938C0390938D0380918703909194
:100DC0008803DC01ED91FC910284F385E02D099507
:100DD00097FDCFCF80938903992702C08FEF9FEFB4
:100DE000FF90EF90DF90CF90BF90AF909F908F904B
:100DF000089580918F038F3F51F061E00E946A0354
:100E000080918E038F3F19F061E00C946A0308957E
:100E100080918F038F3F51F060E00E946A038091C0
:100E20008E038F3F19F060E00C946A030895CF930E
:100E3000DF9300D000D01F92CDB7DEB7789484B591
:100E4000826084BD84B5816084BD85B5826085BDC6
:100E500085B5816085BD80916E00816080936E0054
:100E60001092810080918100826080938100809146
:100E700081008160809381008091800081608093F7
:100E800080008091B10084608093B1008091B000B7
:100E900081608093B00080917A00846080937A00B2
:100EA00080917A00826080937A0080917A008160DC
:100EB00080937A0080917A00806880937A00109203
:100EC000C10081E2E0E0F0E080935700E491E0931C
:100ED0008001E2E0F0E080935700E491E09381012B
:100EE000E4E0F0E080935700849180938201EEE08B
:100EF000F0E091E2909357008491DF01A659BE4F34
:100F00001D968C933196E831F105A1F710923401CA
:100F1000109233011092320110923101109230017F
:100F200081E080932F0110922E0161E082E10E9406
:100F30006A0361E083E10E946A038091B9008E7FB9
:100F40008093B9008091B9008D7F8093B90088E4C7
:100F50008093B80085E48093BC00E091EE02F091AC
:100F6000EF0282E08083E091EA02F091EB021082CE
:100F7000E091EC02F091ED0287E680831092F60298
:100F8000E091F202F091F30286E08083E091F002BA
:100F9000F091F102808180618083E091F002F09114
:100FA000F102808188608083E091F002F091F1028B
:100FB000808180688083E091F002F091F10280816D
:100FC0008F7D80838EED92E09093880380938703DA
:100FD00088E492E090931406809313068CE080934B
:100FE0008F03249A80919003909191038B7F90932B
:100FF00091038093900380910A068E3008F08E5002
:101000008770806480937C0080917A0080648093F4
:101010007A0080917A0086FDFCCF60917800809103
:10102000790070E0782B80911706680F711D072EEC
:10103000000C880B990B611571058105910511F064
:101040000E949511109117060E94901128EE33E02E
:1010500040E050E00E949E11212F30E0C901860F30
:10106000971F0E94B60368E873E180E090E00E9459
:10107000AB06809389034AE651E062E070E081E0CC
:101080000E9498058823B9F14CE651E06AE070E0CF
:1010900082E00E949805882371F180916C01809311
:1010A000760180916D018093770180916E0180932C
:1010B000780180916F018093790180917001809314
:1010C0007A018091710180937B01809172018093FC
:1010D0007C018091730180937D014EE751E062E0D5
:1010E00070E083E00E949805882329F01092830124
:1010F00087E08093840146EF51E065E070E080E591
:101100000E949805882309F405C64BEF51E065E07D
:1011100070E081E50E949805882309F4FBC54DE045
:1011200052E062E070E083E00E949805882309F4B1
:10113000F1C540E152E062E070E086E10E9498056E
:10114000882309F4E7C540E052E065E070E084E5FB
:101150000E949805882309F4DDC543E152E063E06D
:1011600070E085E50E949805882309F4D3C546E11F
:1011700052E063E070E086E50E949805882309F458
:10118000C9C549E152E063E070E087E50E94980537
:10119000882309F4BFC54CE152E063E070E088E5C4
:1011A0000E949805882309F4B5C54FE152E062E03A
:1011B00070E08BE20E949805882309F4ABC542E2F7
:1011C00052E062E070E08CE20E949805882309F406
:1011D000A1C545E252E062E070E08DE20E94980510
:1011E000882309F497C542E951E062E070E089E0A4
:1011F0000E949805882309F48DC544EA51E062E015
:1012000070E08AE00E949805882309F483C547EAC4
:1012100051E062E070E08BE00E949805882309F4B9
:1012200079C54CEB51E061E070E08DE00E949805DB
:10123000882309F46FC54EEB51E061E070E08EE069
:101240000E949805882309F465C54DEA51E062E0E3
:1012500070E08FE00E949805882309F45BC540EB9D
:1012600051E062E070E080E10E949805882309F473
:1012700051C543EB51E062E070E081E10E949805C6
:10128000882309F447C546EB51E062E070E082E153
:101290000E949805882309F43DC549EB51E062E0BE
:1012A00070E083E10E949805882309F433C54AEA77
:1012B00051E062E070E087E10E949805882309F41C
:1012C00029C540EC51E061E070E08FE40E94980590
:1012D000882309F41FC542EC51E061E270E081E728
:1012E0000E949805882309F415C544EE51E06FE08B
:1012F00070E082E70E949805882309F40BC5212C31
:10130000312C05E014E0A0E6B4E0BD83AC8386E0B8
:10131000E82E84E0F82EE7E0F4E0FA83E983C12CBC
:10132000D12CAC81BD8116968D919C911797892BFC
:1013300009F46CC1E981FA81F081FB830E94C10349
:101340004B015C01F801A0814A2E512C612C712CBB
:10135000B0E0A30192010E94BD119B01AC010E946B
:1013600001129B01AC01EC81FD8182819381A481FA
:10137000B581881A990AAA0ABB0AC301B2010E9460
:1013800001124084518462847384DC01CB01840D9A
:10139000951DA61DB71D88159905AA05BB0508F062
:1013A00035C1992493948B818A708A3009F0912CED
:1013B000AB80A2FE0BC0992049F0AC81BD8116968E
:1013C0008D919C911797069709F49BC0EC81FD8144
:1013D0008080E114F10419F48FEF9FEF8EC08091AB
:1013E0001006863959F40E94F90665E98091870351
:1013F000909188030E94910557013CC00E94901172
:1014000020E230E040E050E00E949E11CB010E94BB
:10141000B6038091870390918803DC01ED91FC91E4
:101420000084F185E02D0995892B09F064C00E94A4
:10143000C10340908A0350908B0360908C0370909E
:101440008D03DC01CB0184199509A609B709803306
:101450009742A105B10538F64EC0D5016C916539AA
:1014600091F06B3B81F06A3E71F00E949105FFEFB5
:10147000AF1ABF0A80918703909188032A2D2E19F5
:10148000281558F30CC06BEB0E949105F5016081A3
:101490008BEB68278091870390918803E6CF6AEEF3
:1014A0000E9491058091870390918803DC01ED9162
:1014B000FC910680F781E02D09950E940807F7014D
:1014C0008081811103C086E090E017C0A981BA81B4
:1014D0008C9182FFF8CF809110068639A1F360E1EC
:1014E00077E280E090E00E94AB068630910559F3E8
:1014F000019609F471CF8AE992E0EC81FD8197832E
:101500008683D8018C918F5F8C93EC81FD818681DD
:1015100097818630910509F084C580859185A285E3
:10152000B385892B8A2B8B2BE9F480910B068823BA
:1015300009F473C5A981BA81BC906B2D0B2C000CEA
:10154000770B80E993E00E945E0590E0EC81FD81DD
:10155000208131812817390711F4911006C0B3FE9C
:1015600004C05BC591101BC042C0D8011C92EC8125
:10157000FD811182108212821382148215821782D9
:101580001682992009F442C00E94901120E230E0B6
:1015900040E050E00E949E11CB010E94B603D801AA
:1015A0008C91853198F140910C0650910D06E09197
:1015B0000E06F0910F06B60185E60995EC81FD81D6
:1015C00080859185A285B385892B8A2B8B2B79F415
:1015D00080910B068823D1F0D8011C9211821082D1
:1015E0001282138214821582178216820FC0D801CC
:1015F0001C920E94C103EC81FD816283738384830A
:1016000095836AE4A62EB12CB782A6822FEFC21A68
:10161000D20A09591F4F4C815D8149595F4F5D8343
:101620004C8357E6E50EF11C89819A8189599F4FB9
:101630009A83898395E0C916D10409F072CE912C62
:10164000D12C00E010E05AE5652E712C7301E01AF0
:10165000F10AAAE5EA16F10461F068E873E180E0B6
:1016600090E00E94AB065C018F3FBFEF9B0781F4C7
:101670004DC068E873E180E090E00E94AB068539D8
:10168000910509F043C0809189038B3B31F73EC03F
:1016900085399105D9F18B3B9105A9F468E873E18F
:1016A00080E090E00E94AB065C012BEBA22645E9AE
:1016B000A416B10441F05BEBA516B10421F08AEE4B
:1016C000A816B10419F5EA94EF2849F468E873E123
:1016D00080E090E00E94AB068A3E9105B9F4F801E3
:1016E000E957FC4F7F01A38A0115110509F015C3C5
:1016F00080919A0390911706891709F49CC3882357
:1017000009F499C380911606811195C380916901EE
:10171000882309F4F6C2809135018C3D09F444C157
:1017200008F08EC08A3D09F084C1809335018AEAB1
:101730008093360180E2809337018091F801809395
:1017400038018091F701809339018091FA018093EB
:101750003A018091F90180933B018091FD018093D2
:101760003C018091FC0180933D018091FF018093B9
:101770003E018091FE0180933F018091020280939F
:101780004001809101028093410180910402809385
:10179000420180910302809343018091070280936C
:1017A0004401809106028093450180910902809353
:1017B0004601809108028093470180910C0280933A
:1017C000480180910B028093490180910E02809321
:1017D0004A0180910D0280934B0180911102809308
:1017E0004C018091100280934D01809115028093ED
:1017F0004E018091140280934F01809118028093D2
:1018000050018091170280935101809121028093B1
:101810005201809120028093530180912402809391
:101820005401809123028093550180912702809377
:101830005601809126028093570183E290E000C117
:101840008D3D09F452C08F3D09F0F3C080933501FE
:101850008AEA809336018DE18093370180916A0195
:101860008093380180916B018093390180917601DA
:1018700080933A018091770180933B0180917801B8
:1018800080933C018091790180933D0180917A01A0
:1018900080933E0180917B0180933F0180917C0188
:1018A0008093400180917D018093410180917E0170
:1018B0008093420180917F01809343018091800158
:1018C0008093440180918101809345018091820140
:1018D0008093460180918301809347018091840128
:1018E0008093480180E090E094C0809335018AEABB
:1018F0008093360185E18093370180919301809335
:10190000380180919201809339018091A5018093E3
:101910003A018091A40180933B018091A8018093BA
:101920003C018091A70180933D018091AB018093A0
:101930003E018091AA0180933F018091AE01809386
:1019400040018091AD01809341018091B10180936C
:1019500042018091B001809343018091B401809352
:1019600044018091B301809345018091B701809338
:1019700046018091B601809347018091BA0180931E
:1019800048018091B901809349018091BC01809305
:101990004A018091BE0180934B018091C0018093E8
:1019A0004C0188E190E04CC0809335018AEA809335
:1019B00036018EE28093370180E090E00296DC01F0
:1019C000A157BE4FFC01EB5CFE4FD3962C91D397F1
:1019D0002183D2962C9122838232910579F780E07F
:1019E00090E002969C0121573E4FDC01AB5CBE4F5C
:1019F000F901EB5AFF4F408191964C9391973197A3
:101A0000208192962C938031910559F781E390E0E3
:101A100017C0FC01EB5CFE4FDC01A659BE4F5B9684
:101A20002C91248B01968A30910599F780E290E001
:101A300007C0109235018FEF8093360182E090E06D
:101A4000909368018093670110926901A0906701EB
:101A5000B0906801D090FC03DD2009F44CC1E6E6AB
:101A6000F4E0812C912C80819181892B09F02DC18A
:101A700087E6889D9001899D300D1124A9014A5F58
:101A80005B4F2A0180919003909191038C015FEF4D
:101A9000A516B10411F008F0006484FD006104FF94
:101AA00007C08091080690910906892B09F40F7EE2
:101AB000B80180E993E00E945E057501E80EF11C13
:101AC000C80136E0969587953A95E1F7A82FA17061
:101AD0007A2EB0E1EB16F10478F105FD09C0006241
:101AE000B80180E993E00E945E057501E80EF11CE3
:101AF000EFEFEE16F10489F080F0711012C000646F
:101B0000B80180E993E00E945E057501E80EF11CC2
:101B1000FAE5EF16F10428F104C02AE5E216F10413
:101B200058F040910C0650910D06E0910E06F09190
:101B30000F06B70188E6DEC0D201DC9211960C9345
:101B40001197772091F012961C9212971396EC92AF
:101B500064E070E0C2010E945C06F201848325E02B
:101B60000FC0D201DC9211960C93D2011296EC9226
:101B700063E070E0C2010E945C06F201838324E00E
:101B8000C8018270992700FF25C04091FD03509144
:101B9000FE036091FF0370910004F201E20FF11D5A
:101BA000408351836283738334E0320F009789F05E
:101BB000F201E30FF11D4091920350919303609164
:101BC0009403709195034083518362837383285FEC
:101BD00001C0232F892B39F0F201E20FF11D809112
:101BE000170680832F5F04FF11C080910806909133
:101BF0000906009759F0F201E20FF11D90832F5F63
:101C0000F201E20FF11D809108068083C7018A1955
:101C10009B093801F0E26F22772405FD03C021E023
:101C200030E002C024E030E0821B930BA50165E3A5
:101C300071E0840D951D0E941C126728A9F0870190
:101C400004501109B801C2010E947706F201E00FA9
:101C5000F11F90834E0C5F1CF20133978083319605
:101C60007083319660830BC0B701615071098201A6
:101C7000060F171FC2010E945C06D8018C93E11465
:101C8000F104C9F187E6889D9001899D300D1124EA
:101C9000890109571C4FF801E752FF4FF182E0829A
:101CA00036962AE4A22EB12CB182A0820E94C103F2
:101CB000F801E552FF4F60837183828393833696E8
:101CC000108211821282138216C02FEF821A920A9A
:101CD000E959FF4F45E08416910409F0C4CE4091C4
:101CE0000C0650910D06E0910E06F0910F0665E08E
:101CF00070E086E609951092690190EA292E9FE02E
:101D0000392E5FEF251A350A80EA28168FE038064B
:101D10000CF4F7CA0E947E01EEC90130110589F565
:101D20008091160660919B03811107C080919003FA
:101D300090919103862780FDE9CC80919A038111CF
:101D400004C0862F8C7009F0E1CC962F987063FF49
:101D500002C061FFDBCC862F807466FF02C065FF86
:101D6000D5CC9111D3CC67FDD1CCDD24D394811196
:101D700001C0D12C70E080E993E00E945E05982EAE
:101D80003AC002301105B1F4D11035C060909C0307
:101D9000712C81E0890D90E06816790608F4B6CCC4
:101DA000AAE56A16710408F0B1CCB0E16B167104B3
:101DB00010F11DC003301105F1F4DD20E1F0809138
:101DC0009C0390E0782E662480919D03682A81E030
:101DD000890D90E06816790608F498CCEAE56E164D
:101DE000710408F093CCF0E16F16710420F080913B
:101DF0009B0385FF8BCC80919B0380FF1CC080914F
:101E00001606811118C083E08D0D90E080179107B0
:101E100090F488E08D0D90E00817190760F4F80140
:101E20003497ED19F109E957FC4F9385D701539683
:101E30008C9198136BCC0F5F1F4F0615170508F494
:101E400005CC0D2D10E00D5F1F4FB8018AE993E01E
:101E50000E945C06F801E957FC4F9389891356CC20
:101E6000F0909B03F5FE22C0B301645071098AE92A
:101E700093E00E947706F301EA56FC4F40E050E001
:101E8000A1919A01285E3F4F5B016C0104C0D6947A
:101E9000C794B794A7942A95D2F7AA1137CC485083
:101EA0005109403E2FEF520759F70EC083010150F0
:101EB0001109B8018AE993E00E945C06F801E9572C
:101EC000FC4F9389891322CCF2FE22C080919A03A1
:101ED0008823F1F0809110068639D1F080911606A2
:101EE000811116C00E94F90666E0809187039091E7
:101EF00088030E9491058091870390918803DC01FB
:101F0000ED91FC910680F781E02D09950E9408076C
:101F100081E1E4EFF3E0DF011D928A95E9F780911A
:101F20009A038093F70390919B039093F40396FB9D
:101F3000882780F9E4E0E80F292F227090FF24C061
:101F4000F0E0E656FC4F40815181628173814093FD
:101F5000F8035093F9036093FA037093FB03E8E0EE
:101F6000E80F2223E1F0F0E0E656FC4F408151817A
:101F7000628173814093FD035093FE036093FF03DE
:101F800070930004ECE0E80F222349F0AE2FB0E09C
:101F9000A957BC4F53968C918093FC03EF5F94FF3D
:101FA0000BC0F0E0E957FC4F2489838930E0382BDF
:101FB000309302042093010420910C0630910D0609
:101FC00030930404209303042091080630910906FD
:101FD0002115310541F0409101045091020424176C
:101FE000350709F093CBE0911306F0911406292DE3
:101FF00030E0B301621B730B95FD03C081E090E0FC
:1020000002C084E090E05901A81AB90AC50144EF62
:1020100053E086569C4F099579CB992009F4F6CA6E
:10202000BECA019609F0B0CABACA8CE291E0909398
:1020300019068093180610921A0610921B06109229
:102040001C0610921D061092E1021092E00248EE6A
:1020500053E060E070E04093E2025093E30260934B
:10206000E4027093E50228E031E03093DF02209330
:10207000DE0225EC30E03093EB022093EA0224EC00
:1020800030E03093ED022093EC0220EC30E030930E
:10209000EF022093EE0221EC30E03093F102209326
:1020A000F00222EC30E03093F3022093F20226ECAF
:1020B00030E03093F5022093F4021092F702109270
:1020C000F8021092F9021092FA0290931F06809380
:1020D0001E061092200610922106109222061092DF
:1020E00023069093250680932406109226061092CC
:1020F0002706109228061092290690932B068093AB
:102100002A0610922C0610922D0610922E0610927E
:102110002F06909339068093380610923A06109253
:102120003B0610923C0610923D0690933106809338
:102130003006109232061092330610923406109236
:10214000350690933F0680933E061092400610920B
:1021500041061092420610924306909345068093E2
:1021600044061092460610924706109248061092B6
:10217000490610927E0310927D0340937F03509393
:10218000800360938103709382032AE131E03093EE
:102190007C0320937B0390934B0680934A06109216
:1021A0004C0610924D0610924E0610924F06E7E82C
:1021B000F3E089E0DF011D928A95E9F78FEF8093C4
:1021C0008E0380938F0386E090E090939103809339
:1021D0009003109292031092930310929403109222
:1021E0009503109296031092970310929803109201
:1021F00099031092F4031092F6031092F5031092D3
:10220000F7031092FC031092020410920104109242
:1022100004041092030410920906109208068EE03E
:1022200080930A0681E080930B06109212061092AA
:102230001106109215061092160682E0809317067A
:1022400087E98093100687E692E090930F068093CB
:102250000E0688E692E09093140680931306E6E655
:10226000F4E0118210821282138214821582DF013F
:10227000A156B1091C92E959FF4FB6E0E936FB07B8
:1022800081F708958F929F92AF92BF92CF92DF9283
:10229000EF92FF92CF93DF93EC01688179818A817D
:1022A0009B81611571058105910521F464E279ED49
:1022B0008BE597E02DE133EF41E050E00E949E1165
:1022C00049015A019B01AC01A7EAB1E40E94BD118A
:1022D0006B017C01ACEEB4EFA50194010E94CB111F
:1022E000DC01CB018C0D9D1DAE1DBF1DB7FF03C0D2
:1022F0000197A109B04888839983AA83BB83BC0155
:10230000CD019F77DF91CF91FF90EF90DF90CF903D
:10231000BF90AF909F908F9008950E9442110895B2
:1023200080E091E00E944211089560930001709353
:10233000010180930201909303010895052E97FBFC
:102340001EF400940E94B51157FD07D00E94D011D1
:1023500007FC03D04EF40C94B51150954095309580
:1023600021953F4F4F4F5F4F089590958095709501
:1023700061957F4F8F4F9F4F08950E94F211A59F47
:10238000900DB49F900DA49F800D911D1124089570
:10239000B7FF0C94BD110E94BD11821B930B0895D1
:1023A000A1E21A2EAA1BBB1BFD010DC0AA1FBB1F59
:1023B000EE1FFF1FA217B307E407F50720F0A21BCB
:1023C000B30BE40BF50B661F771F881F991F1A9438
:1023D00069F760957095809590959B01AC01BD0162
:1023E000CF010895A29FB001B39FC001A39F700DBC
:1023F000811D1124911DB29F700D811D1124911D0D
:102400000895DB018F939F930E94BD11BF91AF91FF
:10241000A29F800D911DA39F900DB29F900D11243E
:102420000895EE0FFF1F0590F491E02D099481E0CF
:1024300090E0F8940C942512FB01DC0102C001909D
:0E2440000D9241505040D8F70895F894FFCF08
:10244E00010000000000000015018200AD005C01DB
:10245E00DE00BC00D000000000001602E6014502BE
:0E246E00BA01DE01CA01BB0100000000C80275
:107800000C94343C0C94513C0C94513C0C94513CE1
:107810000C94513C0C94513C0C94513C0C94513CB4
:107820000C94513C0C94513C0C94513C0C94513CA4
:107830000C94513C0C94513C0C94513C0C94513C94
:107840000C94513C0C94513C0C94513C0C94513C84
:107850000C94513C0C94513C0C94513C0C94513C74
:107860000C94513C0C94513C11241FBECFEFD8E036
:10787000DEBFCDBF11E0A0E0B1E0ECE9FFE702C060
:1078800005900D92A230B107D9F712E0A2E0B1E065
:1078900001C01D92AD30B107E1F70E942D3D0C945F
:1078A000CC3F0C94003C982F959595959595959582
:1078B000905D8F708A307CF0282F295A8091C0000B
:1078C00085FFFCCF9093C6008091C00085FFFCCF60
:1078D0002093C6000895282F205DF0CF982F809127
:1078E000C00085FFFCCF9093C6000895EF92FF92F1
:1078F0000F931F93EE24FF2487018091C00087FD22
:1079000017C00894E11CF11C011D111D81E4E8164B
:1079100082E4F8068FE0080780E0180770F3E09132
:107920000401F091050109958091C00087FFE9CF1E
:107930008091C6001F910F91FF90EF9008950E94D3
:10794000763C982F8091C00085FFFCCF9093C600B5
:1079500091362CF490330CF09053892F089597555D
:10796000892F08951F930E949F3C182F0E949F3CCF
:107970001295107F810F1F9108951F93182F882350
:1079800021F00E94763C1150E1F71F9108951F935A
:10799000182F0E94763C803249F0809103018F5F5E
:1079A000809303018530C1F01F9108958091C0003C
:1079B00085FFFCCF84E18093C6008091C00085FFE5
:1079C000FCCF1093C6008091C00085FFFCCF80E102
:1079D0008093C6001F910895E0910401F091050184
:1079E00009951F9108950E94763C803241F0809164
:1079F00003018F5F80930301853081F008958091AA
:107A0000C00085FFFCCF84E18093C6008091C00058
:107A100085FFFCCF80E18093C6000895E0910401CA
:107A2000F09105010995089540E951E08823A1F0FE
:107A30002D9A28EE33E0FA013197F1F721503040CA
:107A4000D1F72D9828EE33E0FA013197F1F7215064
:107A50003040D1F7815061F708953F924F925F9285
:107A60006F927F928F929F92AF92BF92CF92DF924E
:107A7000EF92FF920F931F93CF93DF93000080E16B
:107A80008093C4001092C50088E18093C10086E015
:107A90008093C2005098589A259A81E00E94143D24
:107AA00024E1F22E9EE1E92E85E9D82E0FE0C02ECA
:107AB00010E1B12EAA24A394B1E49B2EA6E58A2E50
:107AC000F2E57F2EE0E26E2E79E4572E63E5462E36
:107AD00050E5352E0E94763C8033B1F18133B9F107
:107AE000803409F46FC0813409F476C0823409F41B
:107AF00085C0853409F488C0803531F1823521F1A3
:107B0000813511F1853509F485C0863509F48DC0BC
:107B1000843609F496C0843709F403C1853709F423
:107B200072C1863709F466C0809103018F5F80932C
:107B30000301853079F6E0910401F0910501099582
:107B40000E94763C803351F60E94F33CC3CF0E94E2
:107B5000763C803249F78091C00085FFFCCFF092DF
:107B6000C6008091C00085FFFCCF9092C600809136
:107B7000C00085FFFCCF8092C6008091C00085FFC9
:107B8000FCCF7092C6008091C00085FFFCCF609250
:107B9000C6008091C00085FFFCCF5092C600809146
:107BA000C00085FFFCCF4092C6008091C00085FFD9
:107BB000FCCF3092C6008091C00085FFFCCFB09210
:107BC000C60088CF0E94763C863808F4BDCF0E945C
:107BD000763C0E94F33C7ECF0E94763C803809F4CC
:107BE0009CC0813809F40BC1823809F43CC1883942
:107BF00009F48FC080E00E94C73C6CCF84E10E94F2
:107C0000BD3C0E94F33C66CF85E00E94BD3C0E94D3
:107C1000F33C60CF0E94763C809306010E94763C44
:107C2000809307010E94F33C55CF0E94763C80333D
:107C300009F41DC183E00E94BD3C80E00E94C73C66
:107C400049CF0E94763C809309020E94763C809343
:107C5000080280910C028E7F80930C020E94763C79
:107C6000853409F415C18091080290910902892B8D
:107C700089F000E010E00E94763CF801E85FFE4FDA
:107C800080830F5F1F4F80910802909109020817AF
:107C9000190788F30E94763C803209F045CF809125
:107CA0000C0280FF01C16091060170910701660F0F
:107CB000771F7093070160930601A0910802B091AD
:107CC00009021097C9F0E8E0F1E09B01AD014E0F09
:107CD0005F1FF999FECF32BD21BD819180BDFA9A17
:107CE000F99A2F5F3F4FE417F50799F76A0F7B1F4B
:107CF00070930701609306018091C00085FFFCCF5F
:107D0000F092C6008091C00085FFFCCFB092C60003
:107D1000E1CE83E00E94C73CDDCE82E00E94C73CFA
:107D2000D9CE0E94763C809309020E94763C8093D3
:107D300008028091060190910701880F991F909386
:107D40000701809306010E94763C853409F4A6C0A1
:107D500080910C028E7F80930C020E94763C8032D0
:107D600009F0B8CE8091C00085FFFCCFF092C6002C
:107D7000609108027091090261157105B9F140E046
:107D800050E080910C02A82FA170B82FB27011C0E2
:107D9000BB2309F45CC0E0910601F0910701319624
:107DA000F0930701E09306014F5F5F4F46175707B7
:107DB000E8F4AA2369F3F999FECF209106013091E6
:107DC000070132BD21BDF89A90B58091C00085FFB2
:107DD000FCCF9093C6002F5F3F4F30930701209355
:107DE00006014F5F5F4F4617570718F38091C00099
:107DF00085FDE5CE8091C00085FFF8CFE0CE81E023
:107E00000E94C73C67CE0E94763C803209F08CCE3F
:107E10008091C00085FFFCCFF092C6008091C00029
:107E200085FFFCCFE092C6008091C00085FFFCCFAB
:107E3000D092C6008091C00085FFFCCFC092C600E2
:107E40008091C00085FFFCCFB092C60043CEE09188
:107E50000601F091070194918091C00085FFFCCF4D
:107E60009093C6009CCF80E10E94C73C33CE0E9415
:107E7000763C0E94763C182F0E94763C112309F430
:107E800083C0113009F484C08FE00E94C73C22CE29
:107E900080910C02816080930C02E5CE80910C02EF
:107EA000816080930C0259CF809107018823880F4D
:107EB000880B8A2180930B02809106019091070123
:107EC000880F991F90930701809306018091080203
:107ED00080FF09C080910802909109020196909359
:107EE000090280930802F894F999FECF1127E091D6
:107EF0000601F0910701C8E0D1E08091080290915D
:107F00000902103091F40091570001700130D9F34B
:107F100003E000935700E89500915700017001308D
:107F2000D9F301E100935700E89509901990009169
:107F3000570001700130D9F301E000935700E89534
:107F40001395103498F011270091570001700130FB
:107F5000D9F305E000935700E895009157000170B0
:107F60000130D9F301E100935700E895329602976A
:107F700009F0C7CF103011F00296E5CF112480919F
:107F8000C00085FFB9CEBCCE8EE10E94C73CA2CD19
:0C7F900085E90E94C73C9ECDF894FFCF0D
:027F9C00800063
:040000030000780081
:00000001FF
